:100000000C94A3020C94C0020C94C0020C945924CA
:100010000C94C0020C94C0020C94C0020C94C00258
:100020000C94C0020C94C0020C94002A0C94D22AA6
:100030000C94D7220C94C0020C94C0020C94C00201
:100040000C94C0020C94C0020C94C0020C94C00228
:100050000C94C0020C947C230C94C0020C94C0023B
:100060000C94C0020C94C0020C94C0020C94C00208
:100070000C94C0020C94C0020C94C0020C94C002F8
:100080000C94C0020C94C0020C94C0020C94C002E8
:100090000C94C0020C94C0020C94C0020C94C002D8
:1000A0000C94C0020C94C0020C94C002E105E1055E
:1000B0000D060D06B507B507B507B5079B0605077D
:1000C000170717071C183F184718321932198318D9
:1000D0009F18B218FC1801190C191719241927199F
:1000E0003A2B612B592C612B592CAD2BD02B592C31
:1000F000272C362C14001A000800150017000400E5
:100100001600070009000A001D221B000600190046
:100110000500E000E300E2002C2200001C001800B3
:100120000C00120013000B000D000E000F00280041
:10013000110010003600370038002C412C002A42F4
:10014000E1002A0014001A0008001500170004003E
:100150001600070009000A001D221B0006001900F6
:100160000500E000E300E2002C2200001C00180063
:100170000C00120013000B000D000E000F002800F1
:10018000110010003600370038002C412C002A42A4
:10019000E1002A0014001A000800150017000400EE
:1001A0001600070009000A001D221B0006001900A6
:1001B0000500E000E300E2002C2200001C00180013
:1001C0000C00120013000B000D000E000F002800A1
:1001D000110010003600370038002C412C002A4254
:1001E000E1002A00FD377A585A000004E6D6B446EA
:1001F0000200210116000000742FE5A3E0020100B7
:10020000E75D003D8889C65436C3174FE4EFB087D9
:1002100049F46750B7592324FDBDA346CB0AEDBC72
:100220003E73DE5566E11955ED02A0470F0C1A41E9
:10023000229B91751C7FFB2619A7FAB30D762468C3
:10024000109180D347151B739EC39E98E8D02A4116
:10025000432C169BFE8E94F87F8337B587FC74DBA6
:1002600043C66882A58C1E4CB5A615EBD910491E55
:10027000768B0E6D1EF7E3D309A008DA6460B640F2
:10028000FB579D09F49B68E7AC5899542E752BDAFF
:1002900006CC98E35F64357A4F63C4CBA1E96ACE9C
:1002A0001345CCB880DB58C4AB649F6F928D128825
:1002B00032784E4A54DF088E206991A47C8E3EEE3F
:1002C000441D65B52B7E30C79C6C637BDF658AD689
:1002D000BEDCBD703D82D7D0E2685AA4DAD6426651
:1002E000E11B1BBD0E412191E0000000F66001A161
:1002F000F05ABB1B0001830282040000A737E861AB
:10030000B1C467FB020000000004595A010001005B
:100310005D029D1ACF1A00000200020059029D1AC8
:10032000CF1A0000030001005E029D1ACF1A0000E0
:100330000400020043029D1ACF1A961A050001001C
:100340005F029D1ACF1A00000600020045029D1AA6
:10035000CF1A0000070002005B029D1ACF1A0000AE
:100360000800010060029D1ACF1A0000120002006E
:1003700061029D1ACF1A00001300020063029D1A49
:10038000CF1A00001400010065029D1ACF1A000068
:100390001500000000009B19181A00000000000062
:1003A000000000002A2B28000000000000000000D0
:1003B0000000000000000029000000002C1E342076
:1003C000212224342627252E362D3738271E1F209C
:1003D0002122232425263333362E37381F040506E1
:1003E0000708090A0B0C0D0E0F1011121314151625
:1003F0001718191A1B1C1D2F3130232D3504050623
:100400000708090A0B0C0D0E0F1011121314151604
:100410001718191A1B1C1D2F3130354C0000000015
:1004200000000000000000000000000000000000CC
:1004300000000000000000000000000000000000BC
:100440007E0F00D4FFFFFFC7000000781C0376007A
:10045000690061006C003A006600360034006300F9
:1004600032006200330063000000100363006F007D
:100470006F006C0039003300390000000A036D0082
:100480002E006B0069000000040309040902420009
:10049000020100A0FA090400000103010100092182
:1004A000110100012244000705810308000109042D
:1004B00001000203000000092111010001222200B5
:1004C0000705820320000107050303200001120134
:1004D000000200000008434D390900010102030138
:1004E0000660FF0961A1010962150026FF00952041
:1004F000750881020963150026FF00952075089193
:1005000002C005010906A101050719E029E7150048
:10051000250195087501810295017508810105077E
:10052000190029FF150026FF0095067508810005B2
:1005300008190129051500250195057501910295F8
:100540000175039101C011241FBECFEFDAE0DEBFB9
:10055000CDBF11E0A0E0B1E0EEEAFAE502C00590FF
:100560000D92AE33B107D9F722E0AEE3B1E001C09E
:100570001D92A837B207E1F70E9449160C94552D39
:100580000C9400008330B0F46830A0F4453090F44F
:1005900098E2899FF001112485E0689FE00DF11D2C
:1005A0001124E40FF11DEE0FFF1FEC50FF4F85915A
:1005B0009491089581E090E008959C013A95211569
:1005C0003F4130F5BC0166277270AC01442754707E
:1005D0009C012227387094FF0FC090FF02C080E179
:1005E00001C080E0672B09F08062452B09F0806430
:1005F000232B79F080680895892F8170672B09F08B
:100600008260452B09F08460232B19F088600895DF
:1006100080E00895CF93DF93EB010E94DD02FE019D
:100620000995DF91CF910895CF93DF93EC01805E20
:100630009109089710F0209719F46CE475E002C056
:100640006AE575E0CE010E940A038C2F0E94D70450
:10065000DF91CF910895CF93DF93EC010E940905BC
:10066000CE01805E9109089710F0209719F463E598
:1006700075E002C061E675E0CE010E940A03DF91D9
:10068000CF91089581E0089581E008950E94440388
:1006900008950E94460308950E9444030895089512
:1006A0000E944F030895A6E0B0E0E9E5F3E00C9462
:1006B000B52C49835A839E833091450189819A8163
:1006C000311115C03E81332359F0222349F00E9495
:1006D0003609182F682F89819A810E94120903C058
:1006E0000E942409182F69817A81812F04C00E94F9
:1006F000360969817A810E94F1102696E3E00C9414
:10070000D12CFC01262F408151816281738184812B
:1007100095810E9453030895CF93DF93EC0161E02C
:100720000E948103BE010E944903DF91CF91089589
:10073000CF93DF93EC0160E00E948103BE010E9431
:100740005003DF91CF91089508950E9476050E948D
:10075000A4032FEF84E39CE0215080409040E1F718
:1007600000C0000008950E94A5030E94A2230895DE
:100770000E94A5030E94B32308950F931F93CF9364
:10078000DF93EC018B010E94C616882309F449C04F
:10079000B801CE010E949919882309F442C0B8011A
:1007A000CE010E944C038823E1F1B801CE010E94E2
:1007B000431E8823B1F1B801CE010E94CE218823C7
:1007C00081F1F8018581882341F1C3308CE7D80796
:1007D000D1F040F4C115FCE7DF0791F0C130DC47F0
:1007E000A1F01BC0CB35ECE7DE07A9F0CC35FCE768
:1007F000DF0771F0CA35DC4781F40E945E0E0DC040
:100800000E94B3030EC00E94660E0E94B80309C086
:100810000E94540E02C00E94620EC8010E94420350
:1008200001C080E0DF91CF911F910F910895CF9388
:10083000DF93EC0161E00E948103BE010E94BD03D1
:10084000DF91CF9108950E94B0220E944A0408953A
:100850000E944E040E94B9220895089581E00895EF
:100860000895CF93DF93D82F0E942E04C82F88239A
:1008700019F08D2F0E9430048C2FDF91CF910895B5
:100880000895CF93C82F0E942D048C2F0E9431040D
:10089000CF91089580E00E94410408950E941E2295
:1008A0000E9441040895CF930E941E22C82F809178
:1008B0004001C81779F0C09340010E94452360931E
:1008C00041017093420180934301909344018C2F26
:1008D0000E944104CF910895009741F0EFE9FFE0B5
:1008E0003197F1F700C000000197F6CF0895ADE011
:1008F000B0E0EDE7F4E00C94B42C488759876A87A0
:100900007B878C879D87882349F080914601909151
:100910004701019690934701809346018D8581118F
:100920000E942F0D8E010F5F1F4F87E0F80111927B
:100930008A95E9F786E0FE013896D80101900D927C
:100940008A95E1F780912E0282FF12C080914502C4
:1009500090914602892B61F00E94EE0C882319F0D9
:1009600082E00E94280E0E94CA0C81110E94830D11
:100970008D8181110AC029813A814B815C816D8111
:100980007E818F810E94450C05C0C8010E948C03A6
:100990008111F1CF2D96E4E00C94D02CFC01248140
:1009A000213021F4808191810E9463090895CF93C1
:1009B000882369F1C82F8CEF8C0F813AD0F46C2F0B
:1009C00080910001909101010E944922882349F001
:1009D0006C2F80910001909101010E9482220E945F
:1009E000910D6C2F80910001909101010E947F2256
:1009F0000CC080E28C0F883050F4C77081E001C0D9
:100A0000880FCA95EAF70E94120D0E94910DCF91AE
:100A100008958823D1F0682F8CEF860F813A38F43F
:100A200080910001909101010E9482220CC080E21D
:100A3000860F883050F4677081E001C0880F6A9596
:100A4000EAF70E94180D0E94910D08951F93CF930D
:100A5000DF93182FEB010E94D704209741F08FE914
:100A60009FE00197F1F700C000002197F6CF812F9A
:100A70000E940905DF91CF911F910895893329F4D0
:100A8000609163027091640204C060916102709190
:100A900062020E9426050895882321F00E94120D0B
:100AA0000E94910D0895882321F00E94180D0E9444
:100AB000910D0895882321F00E94220D0E94910D2E
:100AC0000895882321F00E94280D0E94910D089519
:100AD0000E942F0D0E94910D089580910001909128
:100AE00001010E9485220E94680508950E941F0D41
:100AF0000E946D05089592959F70963079F010F4DC
:100B0000925001C09A50923068F4803F69F018F416
:100B1000883E40F409C0843F29F406C0883E20F096
:100B2000813F11F080E0089581E00895FC01248167
:100B3000222339F0808191810E9463090E947B0504
:100B4000089580E00895A0E0B0E0E9EAF5E00C94B3
:100B5000AF2C7C01EB01FC01D580068102950F7062
:100B60000E94080D8823E9F0DD20D9F08D2F807FC9
:100B7000803451F080E28C0F883098F0011104C06D
:100B80008D2F807E803269F080912E0282FF09C015
:100B900082E00E94280E0E94080D91E0C82EC9260E
:100BA00001C0C12CBD2EB2948FE0B8228B2D90E0F5
:100BB0008C30910508F0D9C1FC01EA5AFF4F0C9422
:100BC000992C1D2F1F708D2F807F11F01295107F93
:100BD000DD2099F0112309F4A6C180E28C0F883042
:100BE00010F0C11104C0812F0E94120D03C0812F8B
:100BF0000E94220D0E94910D96C18C2F0E94090522
:100C0000112309F4B2C180E28C0F883048F1CC2363
:100C100039F1812F0E94280D26C01D2F1F708D2FA6
:100C2000807F803211F01295107FCC2321F0C130EB
:100C300009F451C05CC080912E0282FD17C0DD20F6
:100C400049F0112329F0812F0E94120D0E94910D6D
:100C500080E06AC180E00E940905112309F485C182
:100C6000812F0E94180D0E94910D7FC1DD20D1F0CF
:100C7000002309F456C0013021F4812F0E943C0D5D
:100C800074C180915F02823008F46FC108136DC196
:100C9000812F0E944C05812F0E94530D812F0E94AD
:100CA000E50D63C1002369F080915F02823008F492
:100CB0005CC1013009F059C10E940F0D812309F474
:100CC00054C1812F0E945305812F0E94530D812F03
:100CD0000E94F10D4AC180916502DD2021F080174C
:100CE00008F443C11EC0081708F03FC120C0DD2032
:100CF000E1F00023B1F020E0F701408151816281F1
:100D00007381848195810E945303B7010E94BE1BA9
:100D1000882309F408C1F701868180FF04C18F7020
:100D20008683812F0E944C0520C1011107C1812FAC
:100D30000E9453051AC18D2F837081F5D11019C1FE
:100D40004C2F429546954770440F440F2C2F2F701F
:100D5000042E01C0220F0A94EAF7C4FF08C08FE0F6
:100D600090E001C0880F4A95EAF7809501C080E0C5
:100D70009D2F969596959370822B923049F058F45A
:100D8000913019F00E946408F4C00E945E08F1C01E
:100D90000E946A08EEC00E945B08EBC0DD2019F0DB
:100DA0008D2F817001C08695882309F4E2C04C2FF5
:100DB000429546954770440F440F2C2F2F70042EF8
:100DC00001C0220F0A94EAF7C4FF08C08FE090E048
:100DD00001C0880F4A95EAF7809501C080E09D2FF9
:100DE000969596959370822B923049F058F49130F5
:100DF00019F00E94B008BDC00E94AA08BAC00E94A3
:100E0000B608B7C00E947308B4C01D2F1F70DD2044
:100E100039F0812F0E9485088C2F0E944C05A9C0B3
:100E20008C2F0E945305812F0E949108A2C0C23FBF
:100E3000D9F028F4C03F41F0C13F51F170C0C33F29
:100E4000C9F0C43F09F16BC080916502DD2021F03B
:100E5000081708F08AC003C0801708F486C08D2FD9
:100E60008F710E949E0881C08D2F8F71DD2009F443
:100E700060C077C0DD2029F08D2F8F710E947C0823
:100E800074C00E94780871C080912E0282FD06C055
:100E90008D2F8F71DD2009F464C04BC080915F02FB
:100EA000823040F1DD20C1F00E94EA0C843039F438
:100EB0000E941E0E8D2F8F710E94910855C0809147
:100EC0005F02081708F050C01D2F1F71812F0E946C
:100ED000850863E0812F07C0081740F00E941E0EAE
:100EE00064E08D2F8F710E94000E3EC081E00E9451
:100EF000280E3AC0DD2051F01D2F1F71812F0E9456
:100F0000850863E0812F0E94000E2FC081E00E94BF
:100F1000280E023050F182E00E94280E26C0DD200B
:100F200059F0002321F08C2F0E94D7041EC08D2F72
:100F30008F710E94850819C0002389F0C93329F4F4
:100F4000809163029091640204C08091610290914B
:100F500062020E946C048C2F0E94090506C08D2F2E
:100F60008F710E94910801C0C12C88EF8B0D8430D5
:100F700020F40E941E220E944104CE010E947B05A3
:100F8000811105C0109247011092460120C0DD205A
:100F900019F00111F7CF1BC00111F4CF20E0F701C8
:100FA0004081518162817381848195810E945303C4
:100FB000B7010E94C51B882329F3809146019091B7
:100FC00047010297F9F68C2F0E943E05DBCFCC201B
:100FD00089F00E94EA0C80FD0DC0F70115820E9485
:100FE000E40C0E948508C7010E9417080E94E40CC7
:100FF0000E949108CDB7DEB7E9E00C94CB2C0F939B
:101000001F93CF93DF93EC01688179818D810E94DA
:101010006E098C010E94BC080E944E08B801CE01E6
:101020000E94A305DF91CF911F910F910895CF9357
:10103000DF93FC0124812223D1F0EC010E941704EC
:1010400081110FC00E94080D882389F08D818823AB
:1010500071F080912E0282FF0AC082E00E94280E69
:1010600006C0CE010E94FF07CE010E949803DF91C7
:10107000CF910895A6E0B0E0E0E4F8E00C94B62C3F
:101080002696E2E00C94D22CA7E0B0E0EAE4F8E087
:101090000C94B62C2796E2E00C94D22C0895089577
:1010A0000E944F0808950E94500808950E94530816
:1010B0008093580108950E94560808959091580110
:1010C000892B0E94560808959091580189230E9407
:1010D000560808959091580189270E94560808954E
:1010E0000E944F0808950E94700880935701089548
:1010F00080E00E947308089591E001C0990F8A95DD
:10110000EAF7892F0E947308089521E030E001C0BA
:10111000220F8A95EAF780915701822B0E9473086B
:10112000089521E030E001C0220F8A95EAF720956A
:101130008091570182230E947308089521E030E0D6
:1011400001C0220F8A95EAF78091570182270E94F9
:101150007308089590915701892B0E947308089590
:101160009091570189230E94730808959091570127
:1011700089270E94730808950895962F9770A1E01B
:1011800001C0AA0F9A95EAF793E0769567959A952C
:10119000E1F7FB01EE0FFF1F6E0F7F1FFA01E60F55
:1011A000F71F40E050E0682F70E090819B01042E13
:1011B00002C0369527950A94E2F7217021952927D8
:1011C0002A23292721934F5F5F4F4330510569F749
:1011D00008959B01782F777043E0969587954A95FF
:1011E000E1F7FC01EE0FFF1F8E0F9F1FF901E80FC3
:1011F000F91F40E050E080E0219130E0072E02C06E
:10120000369527950A94E2F721703327042E01C002
:10121000220F0A94EAF7822B4F5F5F4F433051054C
:1012200059F70895282F983070F4853060F4862F90
:10123000622F70E025E0929F600D711D112448E43B
:1012400051E00E94BD080895983070F4853060F434
:10125000292F90E068E471E035E0239F800D911D17
:1012600011240E94E908089580E00895CF92DF924A
:10127000FF920F931F93CF93DF936C01009157015F
:1012800080915801082BC3E0D0E010E0C8010C2E7B
:1012900002C0959587950A94E2F780FD04C02197D6
:1012A000A8F7F12C07C0FC2EB6018C2F0E940C1160
:1012B0000197A9F38F2DDF91CF911F910F91FF908F
:1012C000DF90CF900895CF93DF93EC010E94360911
:1012D000BE010E940C11DF91CF9108951F93CF930F
:1012E000DF93EB0190914501992321F0CB010E94FE
:1012F000630913C0882349F0CB010E943609182FD7
:10130000682FCE010E94120904C0CB010E9424095B
:10131000182FBE01812F0E940C11DF91CF911F91D8
:101320000895E1E0F0E0DF0102C0AA0FBB1F6A955B
:10133000E2F7BD01DF0102C0AA0FBB1F4A95E2F729
:10134000AD01462B01C0EE0F2A95EAF7942F9823A2
:10135000491302C08E2B0895E0958E230895242F03
:10136000462F682F809157010E9491090E947308AF
:1013700008951F93CF93DF93C091590117E0809197
:101380005A01C817A1F0D0E01C9FF0011D9FF00D7D
:101390001124E55AFE4F20813181428153816481BD
:1013A000758186810E9444082196C770E8CFDF913D
:1013B000CF911F9108952091930130919401409114
:1013C00095015091960160919701709198018091DB
:1013D00099010E9444080895CF93DF938091990169
:1013E00082958F7009F04EC080919801882309F48E
:1013F00049C08091590140915A01509194016091E6
:101400009301C0919501D091960177E08417D1F1B5
:1014100090E0789FF001799FF00D1124DF01A55A2B
:10142000BE4F14962C911497222349F111962C91BA
:101430001197251324C02C91261321C015962C91A9
:10144000159721111CC012962D913C9113972C1BBE
:101450003D0B283C310598F4809199018F70806193
:1014600080939901EF59FE4F80818F708061808356
:1014700083E991E00E9417080E94B90903C0019610
:101480008770C4CFDF91CF91089520915901909139
:101490005A0157E02917A9F030E0529FF001539FFD
:1014A000F00D1124E55AFE4F7181761306C070814C
:1014B000781303C07581741306C02F5F3F4F2770E8
:1014C000E9CF80E0089581E00895A4E1B0E0EBE683
:1014D000FAE00C94A92C8C0186E0F801DE011F963D
:1014E00001900D928A95E1F7D80114967C9014979B
:1014F0001596EC9083E9882E81E0982E80919701D3
:1015000081111CC0772009F44CC0EE2009F446C0BC
:10151000C8010E949605F82E882309F43FC087E091
:10152000F801A3E9B1E001900D928A95E1F783E912
:1015300091E00E94CE040E94EC094EC1F801508057
:101540006180C280D38060E083E991E00E948103E2
:101550005C01F09098018091950190919601FF2097
:1015600009F4D0C09601281B390B283C310508F03E
:1015700077C07720B1F080919901382F307F20918A
:101580009401D80111969C911197332369F0291782
:10159000A9F1C8010E94960581113AC0C8010E94B4
:1015A0001708FF24F3946CC1291316C020919301EE
:1015B0009C91291311C0E1100FC08F70806180933E
:1015C00099010E94DB0983E991E00E94170880914C
:1015D0009901F801868325C1E11001C140E0662D23
:1015E000852D0E94450A882309F413C163E971E03F
:1015F000C5010E94BA1B8111FEC00BC1209193014D
:10160000F80190812913C5CFE110C3CF8683B2C002
:10161000EE2021F220919901822F82958F7090E027
:1016200002978CF08091930190919401998788871B
:10163000DB86CA86809197018C871D862E87CE0116
:1016400008960E94170887E0F801A3E9B1E001902D
:101650000D928A95E1F70E94EC090E94DB09A1CF67
:1016600080919901982F907F89F46C2DDA8AC98A2C
:10167000452D562D7A89872D9E2D0E943A0883E9A3
:1016800091E00E94170887E0D401BDC0772009F4DB
:1016900088CF20919401F8019181291311C02091E4
:1016A0009301908129130CC0E1100AC08683C80100
:1016B0000E94170887E0D4011D928A95E9F7E0C0DF
:1016C000C8010E949605882309F468CFEE2009F42A
:1016D00065CF20919901822F82958F7090E00297BB
:1016E0000CF4B1CF80919301909194019A838983F6
:1016F000DC82CB82809197018D831E822F83CE0165
:1017000001969FCFF601E81BF90BE83CF10508F0C4
:1017100054C0772009F445CFFE2CEE2009F43ECFCB
:1017200090919401D80111968C911197981337C01C
:10173000909193018C91981332C09091990190FDF2
:1017400025C0892F82958F70282F30E02115310513
:10175000E9F016969C9316972F30310559F08F5F5C
:10176000982F9295907F16968C9116978F70892B53
:1017700016968C93C8010E94170887E0F801A3E928
:10178000B1E001900D928A95E1F726C087E0F8015B
:10179000A3E9B1E001900D928A95E1F771C0C8010B
:1017A0000E94960581114FCF8091990181608093AD
:1017B0009901C8010E94170863C06C2DDA8AC98A92
:1017C000452D562D7A89872D9E2D0E943A0887E057
:1017D000F40111928A95E9F70E94DB0951C08091CA
:1017E000990181608093990163E971E0C5010E94CC
:1017F000BE1B8823B1F083E991E00E941708E3E95A
:10180000F1E087E0DF011D928A95E9F70E94DB098C
:1018100008C040E0662D852D0E94450AE82E8823E9
:1018200011F0F12C2DC05F86688A8F8598890E94FF
:101830006309292F22952F70243020F49F702230C5
:1018400028F009C02A50223088F015C0992351F0A1
:10185000811108C014C0992329F0D80116969C91D3
:10186000907F69F0805E883030F409C0803F38F0A6
:10187000815F833020F0C8010E941708EF2CFE2CF6
:101880008F2D6496EFE00C94C52CAEE0B0E0EBE455
:10189000FCE00C94B52C288739874A875B876C87D6
:1018A0007D878E87CE0108960E94650A882361F0A5
:1018B0006C856623A9F1288539854A855B857D85F8
:1018C0008E850E9444082CC087E0FE013896DE0118
:1018D000119601900D928A95E1F76C85662301F1CE
:1018E00020915A0130E0C9010196877099274091F3
:1018F000590150E084179507E1F16D8397E0929FBD
:10190000D001939FB00D1124A55ABE4FFE01319610
:1019100001900D929A95E1F780935A010E94B909BE
:1019200017E08091590190915A01891779F1189F18
:10193000C0011124855A9E4F0E94650A882331F107
:10194000E09159011E9FF0011124E55AFE4F2081BC
:101950003181428153816481758186810E9444086E
:101960008091590190E001968770992780935901E1
:10197000D8CF0E94760510925A0110925901E3E9DE
:10198000F1E087E0DF011D928A95E9F72E96E3E00A
:101990000C94D12C8091450290914602892B89F0BC
:1019A0000E9439232091A5013091A601AC01421B70
:1019B000530B81E0209145023091460242175307B4
:1019C00008F480E0817008958091A4018695869541
:1019D000869508958091A401877008950E94392307
:1019E0002091A2013091A301821B930B209145020B
:1019F000309146028217930740F08091A40182FB48
:101A0000882780F991E0892701C080E081700895DE
:101A10009091A401977081E009F480E0089580918D
:101A2000B20108959091B201892B8093B20108957B
:101A300080959091B20189238093B201089510920C
:101A4000B20108959091B101892B8093B10108955D
:101A500080959091B10189238093B10108951092EE
:101A6000B10108958091A801089508950E94350D4F
:101A700008950E94360D0895CF939091A801982360
:101A8000891779F0C82F0E9439239093A60180937B
:101A9000A5018091A8018C2B8093A8018C2F0E9416
:101AA000390DCF9108959091A801292F282399F0FD
:101AB000809589238093A801882319F00E943923F7
:101AC00002C080E090E09093A6018093A5018091F0
:101AD000A8010E94390D0895CF9390912E0292FF94
:101AE00010C09091A801981761F0C82F0E94392367
:101AF0009093A6018093A501C093A8018C2F0E940A
:101B0000390DCF9108958091A801882349F0109252
:101B1000A8011092A6011092A50180E00E94390D43
:101B20000895CF93DF93E0910001F091010180913E
:101B3000B2018083E0910001F091010190818091D8
:101B4000B101892B80838091A8018823E9F08091DD
:101B5000450290914602892B29F00E94CA0C8111FE
:101B60000E94830DE0910001F0910101908180912C
:101B7000A801892B808380910001909101010E942E
:101B80003D2281110E94830DC0910001D09101017D
:101B900048E050E06AE971E0CE010E94E62C892B12
:101BA00059F088E0FE01AAE9B1E001900D928A9512
:101BB000E1F7CE010E943222DF91CF9108950E9479
:101BC000350D08950E94DF0D08959091A701292FEA
:101BD0002823821729F0892B8093A7010E94E20D08
:101BE00008959091A701292F282331F0809589230A
:101BF0008093A7010E94E20D08950E94350D08957B
:101C000090912E0292FF17C098E0899F90011124B5
:101C1000262B2093A4010E9485080E9439239093CB
:101C2000A3018093A2018091A40186958695869553
:101C30000E94FD0D08950E94850808951092A40148
:101C40001092A3011092A20180E00E94FD0D089560
:101C50009091A401809589238093A401282F277057
:101C600069F4981759F090912E0292FF07C086955B
:101C7000869586950E9491080E941E0E0895909167
:101C80002E0292FB222720F9281769F080FB92F997
:101C900090932E0280912D0290912E020E94880E28
:101CA00082E00E94280E089580912E0282FB8827F0
:101CB00080F991E089270E943F0E089581E00E94FB
:101CC0003F0E089580E00E943F0E08956FEF7FEF72
:101CD00080E090E00E943F2D089580E090E00E9417
:101CE0000B2D863E9E4F19F40E945B16089580E0EE
:101CF000089582E090E00E94032D089583E090E033
:101D00000E94032D089584E090E00E940B2D089519
:101D1000BC0184E090E00E943F2D0895AB01BC011E
:101D20008FE090E00E94332D0895AB01BC0183E168
:101D300090E00E94332D089560E070E0CB010E9496
:101D4000950E089560E070E0CB010E948E0E0E9417
:101D50009C0E0895A8E0B0E0E0EBFEE00C94B62CF9
:101D600066EE7EEF80E090E00E943F2D60E082E032
:101D700090E00E94212D60E083E090E00E94212D00
:101D80001092580160E074E184E090E00E943F2DE1
:101D900060E086E090E00E94212D6FEF87E090E008
:101DA0000E94212D40E050E0BA0188E090E00E94BE
:101DB000332D60E084E290E00E94212D60E087E115
:101DC00090E00E94212D60E08CE090E00E94212DA7
:101DD00060E08DE090E00E94212D19821A821B8222
:101DE0001C821D821E821F82188648E050E068E136
:101DF00070E0CE0101960E94112D40E050E0BA0142
:101E000080E290E00E94332D80E00E9474160E94D0
:101E1000A9160E94A20E2896E2E00C94D22C0E94F1
:101E2000AA0E0895A6E0B0E0E8E1FFE00C94B42C1F
:101E30000E9439238C018091B3019091B40108175D
:101E4000190781F019821A820E943923682F49816B
:101E50005A81792F80E090E00E9477041093B401BA
:101E60000093B3012696E4E00C94D02C0E94221239
:101E70006093C1017093C2018093C3019093C40128
:101E80006093BD017093BE018093BF019093C00128
:101E9000089581E008950E943814089508950E94DD
:101EA0004E0F08950E944E0F08950E94520F0895FC
:101EB0000E944E0F08950E94580F08950E944E0FE1
:101EC00008958CE392E10E9456160E9402180E9427
:101ED000EA1A0E945E0F0E945B0F08950E944F0F46
:101EE0000E944E0F08950E945B120E9440040895C4
:101EF0000E9430230E94FC110E94B9160E945314C4
:101F00000E949B130E94730F0E94011C0E945D148B
:101F10000E94550F08950E94381481110E94081ED6
:101F20000895A6E0B0E0E7E9FFE00C94AD2C0E9434
:101F3000490F811103C00E94120F53C00E94C013A9
:101F400085EBE82E81E0F82E670100E0F6011191A3
:101F50006F01802F0E948B1281270F5F083019F0CC
:101F60008823A1F302C0882331F38091C50181FD4C
:101F70000E9491120E944B0FA82E10E09924939476
:101F8000812F0E948B12B82EF701C080C82609F15C
:101F900000E0DD24D3948C2D8D21A9F0AA2099F0A6
:101FA00009831A830E9439239C838B839D8291E04D
:101FB0008B2D8D2109F490E049815A816B817C81C0
:101FC0008D810E9477040F5FDD0C053021F7F7014A
:101FD000B0821F5FFFEFEF1AFF0A183089F60E94E8
:101FE000360F0E948B0F0E9453042696EBE00C9450
:101FF000C92C1F93CF93DF930E941111EC01C115DF
:1020000082E5D807C8F5C11590E5D90708F0BBC02F
:10201000C83ED105C0F4C03ED10508F0DDC0C53AC8
:10202000D10550F4C430D10508F0D6C0219709F08D
:10203000D0C081E090E0D1C0CD3CD10508F4C9C04A
:10204000CE019065CAC0C11580E4D80708F05AC017
:10205000C11590E2D90708F0AFC0C11581E0D807DB
:1020600008F4B7C08D2F0E94AD11182FCE0199270B
:102070000E9411111F71ABC0C03892E5D90720F53D
:10208000C03682E5D80708F061C0C03492E5D907B0
:1020900008F04AC0C03282E5D807F0F54C2F4695CB
:1020A000469590E2499FA0011124C37021E030E0E1
:1020B000C90102C0880F991FCA95E2F7EA01C82B2F
:1020C000D92BCE019D6889C0C03C92E5D90768F440
:1020D0008C2F8F71C03AD24508F04CC090E0D82FB9
:1020E000CC27CE01846F906A78C0C03E82E5D807C5
:1020F00008F06FC0CF71DD27DC2FCC27CE01806FB9
:10210000906A6BC0CE0199270E941111CC27DF7015
:10211000D06A8C2B9D2B61C0CF71D0E0DC2FCC27F7
:10212000CE01816F906A59C08C2F8F7186958695EC
:1021300090E2899F90011124C37081E090E002C079
:10214000880F991FCA95E2F79C6811C08C2F8F7178
:102150008695869590E2899F90011124C37081E055
:1021600090E002C0880F991FCA95E2F79A68822B07
:10217000932B33C00E94AD118F7190E0D82FCC27E4
:10218000CE0190622AC08C2F8F710E94AD1195E014
:10219000D695C7959A95E1F7CF70D0E0DC2FCC2784
:1021A000282F30E084FF05C084E0220F331F8A957A
:1021B000E1F7D069CE01DBCF8D2F8F710E94AD1179
:1021C000182FCE0199270E9411111F719062912B37
:1021D00004C080E090E001C0CE01DF91CF911F915B
:1021E00008952091EB013091EC01232B91F4703F85
:1021F00039F4603F71F48091410290914202089558
:10220000783038F4653028F4462F672F0E94A620D6
:10221000089580E090E008950E94F1100E94F90F67
:1022200008958238910569F1B0F48133910509F47C
:1022300075C048F48932910509F467C08A32910566
:1022400009F471C008958533910509F459C08933A3
:102250009105B9F00895833E910589F138F4803EE7
:102260009105D1F0823E910529F10895863E9105B0
:10227000C9F1873E9105D9F1843E910509F06CC002
:1022800027C020912D0220FD57C021FD55C020916F
:102290002E0223FD5BC0089580912D0280FD48C071
:1022A00080912E0280FF48C080912D0284FD46C09F
:1022B00083EE51C080912D0282FF3CC0F5CF80910A
:1022C0002D0282FD37C080912E0280FD35C0ECCFFB
:1022D00080912E0281FF36C080912D0284FD2EC098
:1022E00087EE39C080912D0283FF2AC0F5CF8091FF
:1022F0002D0283FD25C080912E0281FD23C0ECCFED
:1023000080912D0285FD22C01FC080912D0285FD88
:102310001BC080912E0283FF19C00AC080912D023C
:1023200086FD16C017C080912D0286FD13C010C017
:1023300089E311C082EE0FC080EE0DC080E00BC0BB
:1023400086EE09C084EE07C085E305C089E203C0BC
:102350008AE201C081E390E0089590912D0292FFFE
:1023600010C041E0282F2471243009F040E031E012
:10237000282F2871283009F030E0431711F02CE0A5
:10238000822793FF10C041E0282F2471243109F0E7
:1023900040E031E0282F2871283109F030E0431760
:1023A00011F02CE0822730912E0230FF10C051E056
:1023B000282F2171213009F050E041E0282F2871A9
:1023C000283009F040E0541711F029E0822731FF4E
:1023D00010C041E0282F2171213109F040E031E0A7
:1023E000282F2871283109F030E0431711F029E037
:1023F000822794FD877E08951092290210922A0266
:1024000010922B0210922C020895CF92DF92EF923D
:10241000FF926B017C010E94381481110EC00E9452
:102420004523C61AD70AE80AF90AC0922902D092AF
:102430002A02E0922B02F0922C02FF90EF90DF90A4
:10244000CF9008950F931F930E943814882319F09A
:102450000E9445230EC00E9445230091290210913D
:102460002A0220912B0230912C02600F711F821FD3
:10247000931F1F910F91089580E008950E94660EAA
:1024800008950E94C0132FEF86E791E0215080400D
:102490009040E1F700C000000E94C01380E00E945D
:1024A0008B1280FF04C00E943E120E94A223089556
:1024B0000E94411208950E946D0E811102C00E9477
:1024C0000F0F0E94790E8093C5010E94830E909396
:1024D0002E0280932D020E9458120E947E0E0E94AE
:1024E0005B08809157010E9470080895E82FF0E082
:1024F000E85CFD4F2081822F90E021E030E002C0B7
:10250000220F331F6A95E2F72823392381E0232B1A
:1025100009F480E00895E82FF0E0E85CFD4F808149
:102520000895089580EA8A95F1F7089500C0089506
:102530000E949212089508950E949B1208950E948D
:102540009C1208950E949B1208950E94A212089561
:102550000E949B120895A4E0B0E0E1EBF2E10C943C
:10256000B42C0E943814609140028823E9F119824A
:102570001A821B821C82862F90E08E010F5F1F4FF4
:10258000B801885C9D4F0E946B14882389F080916C
:102590002F0290E044E050E0B801885C9D4F0E941B
:1025A000E62C21E02093C601892B69F410E019C0C4
:1025B0008091C6018823D1F384E0F80111928A95B5
:1025C000E9F71092C601E0912F02F0E0E85CFD4FC0
:1025D00089819A81AB81BC8180839183A283B383FB
:1025E00011E00E949F120DC070E0685C7D4F8091E9
:1025F0002F0290E0885C9D4F0E94F4140E94A81264
:1026000010E0812F2496E4E00C94D02CF894E82F6D
:10261000E295EF70F0E031A1282F2F7081E090E07B
:1026200001C0880F2A95EAF7982F9095932391A3DC
:1026300092A1892B82A3789408950F931F93CF932F
:10264000DF93C7E3D1E089918F3F11F00E94061319
:1026500081E0CB33D807B9F7C2E3D1E007E311E05B
:1026600089918F3F11F00E9406130C171D07C1F7C7
:10267000DF91CF911F910F910895A0E0B0E0E3E4C6
:10268000F3E10C94B02C8C01C62FD0E0CE01895C14
:102690009E4F7C01FC0190819F3F09F447C0D62EDC
:1026A000F894E92FE295EF70F0E081A19F7021E0AE
:1026B00030E001C0220F9A95EAF7822B81A382A114
:1026C0002095282322A378940E949612E2E3F1E059
:1026D00047E351E031E0C12C21912F3F89F0A22F37
:1026E000A295AF70B0E090968C9190E02F7002C0F0
:1026F000959587952A95E2F780FD02C0832F01C04A
:1027000080E0C82A330F4E175F0731F7F701808149
:102710008F3F11F00E94061361E0C11001C060E01C
:102720008D2D0E949812C00FD11FC882CDB7DEB781
:10273000E8E00C94CC2C809102018091020181117F
:1027400002C094E001C090E09093400284E0891BB5
:1027500080932F020E941D1388E0E8E3F2E0DF017E
:10276000982F1D929A95E9F7E0E3F2E0DF011D92C0
:102770008A95E9F784E00E94FE130E94A51208954D
:10278000A8E0B0E0E6ECF3E10C94B32C8E010F5F0F
:102790001F4F88E0F80111928A95E9F7F12C6F2D0F
:1027A000C8010E943D13F394F4E0FF12F8CF48E013
:1027B00050E0B80180E392E00E94E62C21E000970F
:1027C00009F420E0892B41F088E0F801A0E3B2E0B1
:1027D00001900D928A95E1F76091400270E0685C8B
:1027E0007D4F44E080E392E00E94FF13182F0E9487
:1027F000AB12812B2896E5E00C94CF2C0895EF9234
:10280000FF920F931F93CF93DF937C018B01C42F13
:10281000222349F081E08093C9010E9439239093DB
:10282000C8018093C7018091C901811102C080E075
:102830001AC08091C7019091C8010E945123059749
:10284000B0F3D0E0AE01B701C8010E94E62C892B9D
:1028500039F0AE01B701C8010E94F32C81E001C03C
:1028600080E01092C901CDB7DEB7E6E00C94CE2C23
:102870008091CC0181110DC00E948C2C811102C06D
:1028800082E001C081E08093CC01823011F40E948B
:10289000872C81E09091CC01913009F080E008957F
:1028A0000E94381408950E945014809302010E94DF
:1028B000381481110E94A31408950E9438148111C4
:1028C00002C00E94A614089581E09091CD019A3033
:1028D00008F080E008950F931F93CF93DF93EC01EE
:1028E0008B018091CD018A3038F4B801CE010E946D
:1028F000F11481111DC00AC08091CA019091CB01D1
:102900000E945123843F914080F715C08091CD01F2
:102910008F3F19F08F5F8093CD018091CD018A3078
:1029200060F00E9439239093CB018093CA0103C0C9
:102930001092CD0102C080E001C081E0DF91CF9113
:102940001F910F9108950E94142408950E94172446
:102950000895A0E0B0E0EFEAF4E10C94B12C790125
:10296000C82F880FDD0B41155105A9F0FE0193E03A
:10297000EE0FFF1F9A95E1F7ED5FFE4F8181928187
:1029800082539E4F208130E04217530708F49A018A
:10299000A9010E94F32CCE010E94FF24D82E882387
:1029A000D1F001151105B9F083E0CC0FDD1F8A9538
:1029B000E1F7FE01ED5FFE4F438150E0041715077C
:1029C00008F4A801CD5FDE4F6C817D8162537E4F9C
:1029D000C7010E94F32C8D2DCDB7DEB7E7E00C9434
:1029E000CD2C0E94EE1508950E9405160895A4E0CE
:1029F000B0E0EDEFF4E10C94B42C6091E301709140
:102A0000E4018091E5019091E6010E946023643623
:102A100071058105910528F10E942212DC01CB018C
:102A20000296A11DB11D89839A83AB83BC8300E00C
:102A300010E020E030E044E050E0BE016F5F7F4FE7
:102A400082E00E94A914182F882361F00E94452378
:102A50006093E3017093E4018093E5019093E601B4
:102A600001C011E0812F2496E4E00C94D02CA0E06A
:102A7000B0E0EDE3F5E10C94AE2C7C015B016A0162
:102A80000E946414811103C001E010E002C00AE05A
:102A900010E0C1E0D0E0B501C701F6010995811150
:102AA00015C021960C171D0794F0CC9F9001CD9F67
:102AB000300D300D112480E090E045E34A95F1F7A8
:102AC0000000019682179307C1F7E5CF81E0CDB7EB
:102AD000DEB7EAE00C94CA2CA5E0B0E0E2E7F5E14D
:102AE0000C94AE2C5B01E0903B01F0903C0101E0C6
:102AF00010E09E012B5F3F4F40E050E060E070E04F
:102B000080E00E94A914182F882309F43EC06701B1
:102B10008FEFC81AD80A6091DF017091E0018091AF
:102B2000E1019091E2010E94602364367105810504
:102B3000910518F104E010E09E012F5F3F4F40E047
:102B400050E060E070E081E00E94A914182F64E07A
:102B500070E0C6010E94021C91E02D81281390E0D4
:102B6000192351F10E9445236093DF017093E00126
:102B70008093E1019093E20111C064E070E0C6012E
:102B80000E94021C9D818913D5CFF701818192811A
:102B9000A381B48189839A83AB83BC83112361F0C1
:102BA00089819A81AB81BC818093DB019093DC01A8
:102BB000A093DD01B093DE018091DB019091DC01F7
:102BC000A091DD01B091DE01F50180839183A283A4
:102BD000B383812F2596EAE00C94CA2C0F931F93A0
:102BE000CF93DF93EC018B014CE655E10E94371542
:102BF000882331F047EF54E1B801CE010E94371528
:102C0000DF91CF911F910F9108950F931F93CF9351
:102C1000DF93C0913B01D0913C01CE01019624E0AD
:102C2000FB01DC0101900D922A95E1F764E070E070
:102C30000E94021C88836D817E818F81988500911E
:102C4000D7011091D8012091D9013091DA01601794
:102C500071078207930751F06093D7017093D801F1
:102C60008093D9019093DA010E940512DF91CF91F0
:102C70001F910F9108950E94DB260E94780F0E94F9
:102C8000E82608950E94ED260E94910F0E940727D2
:102C900008950E94D0220E94C1260E94610F0E94C6
:102CA0003B160E9442160E946E0FFBCF90933F018D
:102CB00080933E01089585E290E00E94032D8433C5
:102CC00081F486E290E00E94032D8C3851F487E273
:102CD00090E00E94032D91E0863209F090E0892F68
:102CE00001C080E081700895CF93C82F811102C088
:102CF0006FEF01C064E385E290E00E94212DC111D5
:102D000002C06FEF01C06CE886E290E00E94212DC6
:102D1000C11102C06FEF01C066E287E290E00E943D
:102D2000212DCF910895089588E290E00E94032D0F
:102D3000682F70E080E090E008950895CF93C62F4B
:102D40000E949D166C2F88E290E00E94212DCF9169
:102D5000089580E00E94741660E070E0CB010E944C
:102D60009E160E94CD1F0E94FB2081E00E947416D7
:102D700008950E9493160E9494160E949D160E9428
:102D80005B16811102C00E94A91608959C01FB01E7
:102D90008581882351F0A90157574038510530F4F7
:102DA000C9010E940B2180E0089581E008952FEF72
:102DB000FC0120830895EF92FF920F931F93CF930E
:102DC000DF93EC01162F2091EB013091EC0188810B
:102DD000232B61F08E3F09F00CC18981833008F408
:102DE000FFC08550833008F004C1FAC08B3009F46D
:102DF000E2C038F5853009F475C0B8F48230E9F1E5
:102E000030F4813009F0F1C0198289E082C083304A
:102E100009F45BC0843009F0E8C04B816A81898184
:102E20000E947F1F9C838D83E4C0873009F468C0B3
:102E300008F463C0883009F463C0893009F460C0C5
:102E4000D4C0803109F490C060F48D3009F45EC0C4
:102E500008F459C08E3009F45EC08F3009F46CC09C
:102E6000C4C0823109F487C008F481C0833109F4F9
:102E700092C08E3F09F4B4C0B8C08981823041F05D
:102E8000833069F0813009F0B0C00E94452302C050
:102E90000E9494169A838B837C836D83AAC0809151
:102EA000ED019091EE01892B09F4A3C07E0122E08F
:102EB000E20EF11C00E0802F0E948B12F70181933B
:102EC0007F010F5F0830B9F794C08981823009F023
:102ED0008CC06A817B818C819D810E949F2C0E9485
:102EE0009E1687C02C813D813227232732274B81B4
:102EF0006A8189810E94A01F7CC00E94CD1F79C079
:102F00008FEF888376C00E94B22033C00E94B42025
:102F100099838A836EC089819A8198278927982707
:102F20006B8170E06D31710508F063C0AE014C5FDC
:102F30005F4F0E94B7205DC08091ED019091EE013E
:102F4000892B09F456C089819A8198278927982767
:102F50006B8170E06D31710508F04BC0AE014C5FC4
:102F60005F4F0E94DA2045C00E94FB2042C00E94B1
:102F70006C1F89833EC089819A8198278927982769
:102F80006B8170E06D317105A0F5AE014C5F5F4F54
:102F90000E94FF1F2EC089819A8198278927982730
:102FA0006B8170E06D31710520F5AE014C5F5F4FB4
:102FB0000E9421201EC08091ED019091EE01892B8D
:102FC000C1F0CE010E94B725FFEF21EE84E0F15061
:102FD00020408040E1F700C000000E94A22309C009
:102FE000612FCE010E94031804C0612FCE010E9400
:102FF000D716612FCE010E94B725CDB7DEB7E6E028
:103000000C94CE2C0895A8E0B0E0E9E0F8E10C942F
:10301000B22C603209F026C1DC011196EC911197B7
:103020004E2F50E04E30510508F01CC18C01FA01C2
:10303000EE59FF4F0C94992C88E0EAE2F1E0DE01B2
:10304000119601900D928A95E1F780E2F8011192B4
:103050008A95E9F786E0D8018C9311961C92119716
:1030600012961C92129713961C92139788E0FE01F9
:103070003196149601900D928A95E1F7F3C088E29B
:10308000FD01808381E0818312821382EBC0DC0129
:1030900013968C91139790E0982F882712962C9175
:1030A000820F911D092E000CAA0BBB0B35E0880F77
:1030B000991FAA1FBB1F3A95D1F7AC01BD01405E15
:1030C0005F4F6F4F7F4F481759076A077B0708F418
:1030D000C9C08832E1E09E07A105B10508F0C2C071
:1030E0004932F1E05F076105710520F048E251E0E7
:1030F00060E070E0481B590BBC016C517E4FC80169
:103100000E94DD2CAFC040E250E06FEF70E00E9403
:10311000FC2C8091ED01D8018C938091EB011196EC
:103120008C93119712961C92129713961C921397D8
:1031300081E014968C93149715968C9393C081E03C
:1031400090E09093EC018093EB0182E390E0909308
:10315000EA018093E9010E9439239093E80180936A
:10316000E70180C08091EB019091EC01892BC9F1BE
:1031700060E080E00E947612E82E61E081E00E942B
:103180007612F82E8091E7019091E8010E94512378
:103190008536910500F1EE20F1F0FF20E1F00E946C
:1031A00039239093E8018093E7018091E9019091A0
:1031B000EA0101979093EA018093E901892B89F450
:1031C0001092EC011092EB0181E090E09093EE01FF
:1031D0008093ED0106C082E390E09093EA01809332
:1031E000E9018091ED01F80180838091EB018183F9
:1031F0008091E901828336C01092EE011092ED01B8
:1032000031C040E250E0BC01DC0112968D919C91EE
:1032100013970E94441B26C0BC016F5F7F4F4FE194
:1032200050E0FC01828193810E94731B0AC0BC01A3
:103230006C5F7F4F4CE150E0FC01828193810E94E2
:103240008E1BD8018C930EC00E94101B0BC0FC017A
:103250008281811107C080E21D928A95E9F7108270
:10326000118212822896E6E00C94CE2CA6E0B0E003
:10327000ECE3F9E10C94B62C909342028093410266
:10328000811520E2920718F40E94140310C080EF09
:1032900089838A830E9439238160682F9C838B8372
:1032A00049815A817C8181E091E00E9477042696D1
:1032B000E2E00C94D22CA6E0B0E0E1E6F9E10C9457
:1032C000B62C9093420280934102811520E292072E
:1032D00018F40E942B0310C080EF89838A830E9418
:1032E00039238160682F9C838B8349815A817C813B
:1032F00081E090E00E9477042696E2E00C94D22CC4
:10330000CF93DF93EC010E94361980916102909176
:103310006202009741F0EFE9FFE03197F1F700C05A
:1033200000000197F6CFCE010E945B19DF91CF918B
:10333000089581E00895A0E0B0E0E1EAF9E10C949D
:10334000AE2C4430510508F46CC040912D0241FB75
:10335000CC24C0F8D12CCC0CDD1C42FB882780F992
:10336000C82FE0E0DE2FCC0FDD1FCC0FDD1FCC2AF5
:10337000DD2A40FBEE24E0F8F12CEC28FD2843FB8D
:10338000AA27A0F9B0E023E0AA0FBB1F2A95E1F716
:10339000EA2AFB2A44FBEE27E0F9F0E034E0EE0FE6
:1033A000FF1F3A95E1F7EE29FF2945FB222720F977
:1033B00030E055E0220F331F5A95E1F72E2B3F2BBB
:1033C00046FB882780F990E0E6E0880F991FEA9590
:1033D000E1F7822B932B47FB442740F950E05695A9
:1033E000542F442757954795842B952B20912E02D7
:1033F000322F3170132F00E0082B192B26952170E6
:10340000B22EBB0CA12C0A291B29012E000C220B69
:10341000330BFB01008311832283338380E090E030
:1034200002C08FEF9FEFCDB7DEB7EAE00C94CA2C55
:10343000CF92DF92EF92FF924430510508F46FC0B3
:10344000FB01C080D180E280F3800E9476058091EC
:103450002D02C0FA80F9B701A601769567955795B8
:10346000479540FB81F9B701A60122E07695679563
:10347000579547952A95D1F740FB82F9B701A601E8
:1034800033E076956795579547953A95D1F740FB88
:1034900083F9B701A601E4E07695679557954795BE
:1034A000EA95D1F740FB84F9B701A601F5E07695DE
:1034B000679557954795FA95D1F740FB85F9B70180
:1034C000A601A6E07695679557954795AA95D1F7F9
:1034D00040FB86F9B701A601B7E076956795579549
:1034E0004795BA95D1F740FB87F980932D028091DB
:1034F0002E02D0FA80F999E0F694E794D794C79415
:103500009A95D1F7C0FA81F980932E0280912D020D
:1035100090912E020E94880E80E090E002C08FEF12
:103520009FEFFF90EF90DF90CF900895809143023E
:10353000909144020E943E1E08959C01CA01F90127
:103540003296459154918417950750F0CB01F901BB
:103550003496659174910E94F32C80E090E0089578
:103560008FEF9FEF08950F931F93CF93DF9303E4A3
:1035700012E0C0E0D0E0CE010E94BB1FF8016191D3
:103580008F01861719F0CE010E94C51F2196C43203
:10359000D10589F7DF91CF911F910F910895DA013D
:1035A0009C012E5F3F4FF90145915491F9012591FE
:1035B0003491A217B30758F0FC0134968591949189
:1035C0000E94F32C0E94B31A80E090E008958FEFE0
:1035D0009FEF08950F931F93CF93DF9303E412E0BF
:1035E000C0E0D0E0CE010E94BB1FF80181938F01A3
:1035F0002196C432D105B1F7C0E0D0E0FE01EA5E09
:10360000FC4F85919491009711F0FC0109952C963F
:10361000C039D10599F7DF91CF911F910F9108958E
:10362000E3E4F2E0128E138E8FEA90E091838083C0
:1036300085E0848F28E833E13383228322E330E07E
:10364000378B268B28EC30E0318F208F158E178E2C
:10365000168E20E530E031A320A382A30E94B31A86
:103660000E94760510922E0210922D02EEE2F2E0F8
:1036700080818460808380912D0290912E020E942F
:10368000880E0E94EA1A0895EF92FF920F931F93FB
:10369000CF93DF937C01EB018A016FEF70E0CE01E5
:1036A0000E94FC2C2CE033E080E090E0AC014E5F07
:1036B0005F4F0417150790F0F90165917491E616B4
:1036C000F70630F4FE01E80FF91F71836083CA0129
:1036D000245F3F4F43E02C39340741F7CDB7DEB7C5
:1036E000E6E00C94CE2C9C018CE093E0FC01A591CB
:1036F000B4912A173B0741F00C96E3E08C399E0702
:10370000A9F78FEF9FEF0895FC013696259134912C
:1037100021153105B1F3F90109950895CF93DF9390
:10372000CCE0D3E0FE01259134918217930731F06C
:103730002C9623E0CC39D207A9F707C0FE013896B2
:10374000259134912115310519F48FEF9FEF0FC0AA
:10375000CE01F9010995009751F4FE013A96859141
:103760009491009711F0FC01099580E090E0DF91C1
:10377000CF910895809160028170089580916002D8
:103780008695817091E0892708958091600283FB7E
:10379000882780F908958832910550F48E3191057B
:1037A000A0F4049700F180915E028295817012C0AE
:1037B0008933910530F48D32910578F48B9769F057
:1037C00012C08436910549F00EC080915E0283FBE1
:1037D000882780F991E08927089580915E0282FB15
:1037E000882780F9F7CF80E0089580915E0285FBFD
:1037F000882780F9089580915E0286FB882780F9EA
:1038000008950895FC01680F791F8FEF91E3E61783
:10381000F70771F02191822728E030E087FF03C08D
:10382000880F892701C0880F21503109B9F7EFCFE0
:103830000895A0E0B0E0EFE1FCE10C94B12CE82F9A
:10384000F0E0E456FC4FD490282F26952695269537
:1038500030E0F901E45CFB4F0491877010E0082E22
:1038600002C0159507950A94E2F701701127F90136
:10387000E45DFB4FE490F12C082E02C0F594E79430
:103880000A94E2F791E0E922FF24F901E45EFB4F9C
:10389000C491D0E002C0D595C7958A95E2F7C17072
:1038A000DD270115110519F081EE0E94D704E114FE
:1038B000F10419F086EE0E94D7048D2D0E943E057A
:1038C000E114F10419F086EE0E94090501151105B5
:1038D00019F081EE0E940905CD2B19F08CE20E94AF
:1038E0003E05CDB7DEB7E7E00C94CD2CEF92FF920A
:1038F0000F931F93CF93DF93EC01162F0AE088817B
:10390000882309F455C0813009F043C08981813092
:1039100041F47E0182E0E80EF11C8A810E943E059E
:1039200009C0823049F47E01E2E0EE0EF11C8A818A
:103930000E94D704E7012FC0833041F47E01F2E0FA
:10394000EF0EF11C8A810E940905F4CF843011F03A
:10395000219621C02A81229680E090E030E0205319
:1039600031092A30310558F4089FA001099F500DF4
:103970001124C901840F951F21962881EFCF00974C
:1039800051F0EFE9FFE03197F1F700C00000019737
:10399000F6CF0E94191C2196812F882309F4AFCFFE
:1039A000EFE9FFE03197F1F700C000008150F5CF5B
:1039B000CDB7DEB7E6E00C94CE2C60E00E94761C1A
:1039C000089580911B01877F80931B0182E00E94F4
:1039D000280D80911B0184FF06C08F7E80931B0100
:1039E00082E00E94120D80911B0185FF06C08F7D31
:1039F00080931B0180E20E94120D0E94910D089598
:103A0000CF93DF93EC01662319F082E00E94220D30
:103A1000CE0190528115904318F4CE01992701C030
:103A2000CE010E941403DF91CF9108959C01305282
:103A30002115304308F499270E942B030895FC01B7
:103A4000FF2724E0F695E7952A95E1F79C012F7072
:103A50003327EE0FFF1FE151FE4F81E090E002C0DF
:103A6000880F991F2A95E2F7662329F0208131817A
:103A7000822B932B06C080959095208131818223E3
:103A80009323918380830895FC0123E0F695E795C5
:103A90002A95E1F7EE71FF27E151FE4F8F709927CC
:103AA00021E030E002C0220F331F8A95E2F78081C7
:103AB00091812823392381E0232B09F480E00895A4
:103AC000A0E0B0E0E6E6FDE10C94B12CEC017B0156
:103AD000D42E890180911B0182FF80C020911602A3
:103AE000309117022C173D0719F0209709F076C086
:103AF00090911B019B7F90931B0191FD11C08091C0
:103B0000180290911902A701481B590B61E080919E
:103B10001C0190911D014817590718F460E001C07D
:103B200061E0617080911B0160FB81F980931B0152
:103B3000C9010E941F1D0E940F0D81FF08C08091C6
:103B40001B01806180931B0182E00E94180D0E947E
:103B50000F0D85FF08C080911B01806280931B01BF
:103B600080E20E94180D60911B0166956170A801AA
:103B700080911602909117020E94001DD11005C07D
:103B8000809161029091620213C0B8018091160287
:103B9000909117020E94F51B882391F3B801809140
:103BA0001602909117020E94FB1B8111E9CF2BC0D6
:103BB000009741F0EFE9FFE03197F1F700C0000016
:103BC0000197F6CF60911B0166956170A801809105
:103BD0001602909117020E94161D0FC0CE010E947E
:103BE000441DA801682FCE010E94161D8091160267
:103BF00090911702C817D90711F40E94E11CF092A6
:103C00001902E0921802CDB7DEB7E7E00C94CD2C94
:103C100080915E0280FF1EC080911B0182FF1AC04E
:103C20000E9439232091180230911902AC01421BE5
:103C3000530B20911C0130911D014217530750F086
:103C40002FE032E041E0BC01809116029091170212
:103C50000E94601D089580911B01982F909590FB04
:103C600080F980931B010E94E11C089580911B0143
:103C70008E7F80931B010E94E11C089590931D018B
:103C800080931C010895CF92DF92EF92FF921F93D1
:103C9000CF93DF9320915E0220FF35C07B01EC01C2
:103CA0000E9439236C01F7018581882371F180918D
:103CB0001B0182FF08C02FE032E040E0B60180E047
:103CC00090E00E94601DC431FCE7DF0789F0C53138
:103CD0002CE7D20751F0C3313CE7D30759F4809168
:103CE0001B01816080931B0105C00E942B1E02C036
:103CF0000E94361ECE0190528115904368F51092B5
:103D000017021092160211E0DEC0C13ED10521F467
:103D100080911B018F7E06C0C53ED10531F4809194
:103D20001B018F7D80931B0117C0CE01905281151E
:103D3000904390F480911B0182FFE5CFB701CE0143
:103D40000E94BE1B182F8823F1F22FE032E040E0E2
:103D5000B60180E090E0B1C080911B0180FFD3CF1D
:103D6000B701CE010E94CB1BF7011581882309F40E
:103D7000A7C0112309F49DC00E940F0D182F0E94A7
:103D8000320D812B8D7FB9F010921702109216021E
:103D900080915E0281FD0FC060E0CE010E941F1D78
:103DA000A70160E0CE010E94001D0E94320D8D7FB0
:103DB0000E946C0D79C087E0F701AFE0B2E001909E
:103DC0000D928A95E1F7109214021092120210924D
:103DD00011028091160290911702C817D90709F0B5
:103DE00043C0B701CE010E94F51B8823E9F1809101
:103DF0001B0181FD0BC08091180290911902960160
:103E0000281B390B283C310578F50AC0B701809191
:103E10001602909117020E94FB1B8111ECCF24C067
:103E20000E940F0D81FF08C080911B01806180936B
:103E30001B0182E00E94180D0E940F0D85FF08C033
:103E400080911B01806280931B0180E20E94180D0B
:103E500060911B0166956170A70180911602909197
:103E600017020E94001D23C00E940F0D182F0E94F0
:103E7000320D812B8695817090911B0180FB91F909
:103E800090931B010E94320D8D7F0E946C0DD09388
:103E90001702C0931602D0921902C09218028091A4
:103EA0001B01846080931B0182E00E94280E10E0B9
:103EB0000AC0970140E0B601CE010E94601D03C018
:103EC00011111DCF20CF812FDF91CF911F91FF9036
:103ED000EF90DF90CF90089584E0089550E0440F74
:103EE000551F2AE0629F400D511D11249A0160E583
:103EF000869F200D311D1124C901899608950F93C5
:103F00001F93CF93DF938430A0F4683090F4453052
:103F100080F40E946E1F8C010E94032D90E0D82F28
:103F2000CC27C80101960E94032D9E01282BC901B0
:103F300002C080E090E0DF91CF911F910F91089532
:103F40000F931F93CF93DF93843080F4683070F425
:103F5000453060F4E9010E946E1F8C016D2F0E94B4
:103F6000212D6C2FC80101960E94212DDF91CF9148
:103F70001F910F9108958432910528F487599E4F1F
:103F80000E94032D089580E008958432910520F465
:103F900087599E4F0E94212D0895EF92FF921F9303
:103FA000CF93DF93E090ED01F090EE0181E090E09F
:103FB0009093EE018093ED01D0E0C0E010E0412F3E
:103FC0006C2F8D2F0E94C2029C01412F6C2F8D2FD0
:103FD0000E94A01F1F5F153091F7CF5FC83071F7A7
:103FE000DF5FD43051F70E94101BF092EE01E09297
:103FF000ED01DF91CF911F91FF90EF900895EF9227
:10400000FF920F931F93CF93DF93EA017A01E60E9D
:10401000F71E8C01C8018996CE15DF0569F00034C2
:1040200021E0120720F40E94032D888301C018822A
:1040300021960F5F1F4FEECFCDB7DEB7E6E00C94B1
:10404000CE2CA0E0B0E0E7E2F0E20C94AA2CEC0168
:104050006B017A018034914008F073C080E491E0F4
:104060008C1B9D0B8617970708F46BC03E0139E245
:10407000630E711C8091ED019091EE01892B19F076
:10408000CE0CDF1C59C0C0FF11C0CE0188960E9423
:10409000032D90E0982F8827F7012081822B81152E
:1040A0009C4739F48FEFF701808303C000E010E0F4
:1040B00002C001E010E0CE018C0D9D1D560180FF75
:1040C00017C0F1E0AF1AB10847018A0C9B1CC3016D
:1040D0008C0D9D1D0E94032DF401208130E0322FB4
:1040E0002227282B21153C4719F48FEFF4018083F8
:1040F000F701E00FF11F2FEFCF018E199F098A15ED
:104100009B0508F0BDCF808190E0982F88273181F2
:10411000832B81159C4711F4208321833296ECCFA9
:10412000C034E1E0DE0720F4F70160810E94212D18
:10413000FFEFEF1AFF0A2196CE018996EC14FD04D9
:1041400079F7CDB7DEB7EEE00C94C62C843038F4A6
:10415000683028F4453018F40E947F1F089580E0ED
:1041600090E0089580E1089583E792E00895EF924A
:10417000FF920F931F93CF93DF93EA017A01E60E2C
:10418000F71E8C01C80183579E4FCE15DF0569F0DD
:10419000033722E0120720F40E94032D888301C018
:1041A000188221960F5F1F4FEDCFCDB7DEB7E6E047
:1041B0000C94CE2CEF92FF920F931F93CF93DF932B
:1041C000EA017A01E60EF71E8C01C80183579E4F63
:1041D000CE15DF0559F0033722E0120718F4688185
:1041E0000E94212D21960F5F1F4FEFCFCDB7DEB775
:1041F000E6E00C94CE2CCF93DF93CDE8D1E060E0E5
:10420000CE010E94212D2196C11584E0D807B9F76F
:10421000DF91CF910895A4E0B0E0E1E1F1E20C94E8
:10422000AC2CF82E2FE0281708F4B4C08FEF93E0E1
:104230000E94032D8111AEC00DE811E0FF2071F046
:10424000011584E0180709F4A5C0C8010E94032DD8
:10425000811101C0FA940F5F1F4FF0CF19821A82AB
:104260001B821C82CC24CA947801EFEFEE1AFE0A5E
:10427000C8010E94032D89831A82882309F48AC009
:10428000813009F081C05801F2E0AF0EB11CC701C6
:104290000E94032DD82E8A83882309F47BC08FEFD8
:1042A0008D0D833088F4780123E0E20EF11CC50106
:1042B0000E94032D8B83811102C08701D5CFCE01CF
:1042C00001960E94DD1CF9CF8BEF8D0D833078F5C0
:1042D000480183E0880E911CC5010E94032D8B8349
:1042E000811102C07401E9CF7801E4E0EE0EF11C07
:1042F000C4010E94032D8C838823F9F22B813C8119
:104300002130FFEF3F0718F0922F80E001C0C90174
:1043100026E0D21631F0E7E0DE1631F00E94801977
:10432000CCCF0E943619C9CF0E945B19C6CFF4E0EA
:10433000DF1611F07501C1CFC5010E94032DD82EE3
:10434000780124E0E20EF11CC80103960E94032DBF
:10435000DD2001F18823F1F0282F30E021503109D0
:10436000C29EA001C39E500D11248D2D90E0019797
:10437000840F951F019708F4A0CFEFE9FFE0319774
:10438000F1F700C00000F6CF60E0CE0101960E9478
:10439000761C93CF2496ECE00C94C82C1F93CF93FB
:1043A000DF9387372CE7920721F088379C4759F035
:1043B00031C0FB01C581CC2319F00E94102209C035
:1043C0000E94102218C0FB01C581CC2391F00E94ED
:1043D00013220E9485080E941622D82F0E941322C1
:1043E000C82F0E9410224D2F6C2F0E94AF09C0E0F1
:1043F00012C00E9413220E9491080E941622182FB8
:104400000E941322D82F0E941022412F6D2F0E944C
:10441000AF0901C0C1E08C2FDF91CF911F910895AA
:1044200080912001089580911F01089580911E01BF
:10443000089590931C0280931B0208950E943814E3
:10444000811103C080911A020895E0911B02F0913E
:104450001C02309729F00190F081E02D0995089514
:1044600080E00895E0911B02F0911C02309721F04A
:104470000280F381E02D09950895FC01329697E0C2
:1044800080E0915029F021912223D9F38F5FF9CF59
:104490000895662349F0FC0132960896219162172F
:1044A00029F0E817F907D1F780E0089581E0089531
:1044B0009C01FC0132969FEF80E04191461789F004
:1044C0009F3F19F4411101C0982F8F5F8630A9F7E3
:1044D0009F3F39F0F901E90FF11D97FDFA956283CD
:1044E000089508959C012A5F3F4FFC0142814613C5
:1044F00001C01282019682179307B9F708950E94AE
:10450000582208950E9472220895029626E0FC0126
:1045100011922A95E9F7089508950E948C22089532
:1045200083E080931D020E948D220895811102C0B4
:1045300081E001C082E080931D020E948D220895D7
:104540000E949622089581E080931D020E948D2290
:1045500008950E94A322089508950E94AC22089510
:104560000E94AD2208950E94AC2208950E94AC22C0
:1045700008950E94AC220895CF930E94B6220E9413
:10458000C0130E94B322C0E08C2F0E948B128111B5
:1045900004C0CF5FC830C1F701C081E0CF9108955A
:1045A00085B7806885BF85B7806885BF08951F92ED
:1045B0000F920FB60F9211248F939F93AF93BF93D7
:1045C00080911E02811113C0809167029091680250
:1045D000A0916902B0916A024196A11DB11D80931C
:1045E000670290936802A0936902B0936A02BF9138
:1045F000AF919F918F910F900FBE0F901F901895C4
:1046000080916F02843031F10E94230410921E02C7
:1046100020E488E190E00FB6F894A89580936000BC
:104620000FBE2093600083B7817F846083BF83B710
:10463000816083BF7894889583B78E7F83BF0FB6E0
:10464000F894A89580916000886180936000109232
:1046500060000FBE08950E9476050E942804089508
:1046600082E084BD93E095BD9AEF97BD80936E0084
:1046700008952FB7F8948091670290916802A091F5
:104680006902B0916A022FBF08952FB7F894609124
:104690006702709168028091690290916A022FBF4F
:1046A00008959C014FB7F894809167029091680239
:1046B000A0916902B0916A024FBF821B930B0895CB
:1046C000CF92DF92EF92FF922FB7F894C0906702DB
:1046D000D0906802E0906902F0906A022FBFA701B3
:1046E0009601261B370B480B590BCA01B901FF90E5
:1046F000EF90DF90CF90089578941F920F920FB6AD
:104700000F9211248F939F93AF93BF938091670271
:1047100090916802A0916902B0916A020196A11D70
:10472000B11D8093670290936802A0936902B093D1
:104730006A02BF91AF919F918F910F900FBE0F9022
:104740001F90189587E797E79093010880930008DA
:104750009AE088E10FB6F894A895809360000FBEA8
:1047600090936000FFCF9AE088E10FB6F894A89587
:10477000809360000FBE90936000FFCF8EE14A9B54
:1047800002C08150E1F74A9BFECF08955A9880E21B
:104790008A95F1F75A9A0895FC012AE02A95F1F7D3
:1047A00028E090E080E031E040E14A95F1F7880FA1
:1047B0004A9B02C08160932700C0000040E14A95F7
:1047C000F1F7215089F720E12A95F1F729B100C0CE
:1047D000000030E13A95F1F722FB222720F99227D9
:1047E0002081920F90830895A1E0B0E0EAEFF3E218
:1047F0000C94B22C19828C017C01E60EF11C0E1572
:104800001F0551F00E94BE23CE0101960E94CC23C9
:10481000F80181938F01F3CF81E09981911180E0BC
:104820002196E6E00C94CE2C529A5A9A089552980A
:104830005A9AEA9AE9E6F0E080818F7C80830895B5
:10484000615091E001C0990F6A95EAF720E031E0EC
:10485000992361F0492F482319F05A9A232701C060
:104860005A9840E24A95F1F79695F2CF222311F03B
:104870005A9A01C05A9880E28A95F1F75A98089599
:10488000FF920F931F93CF93DF93EC018C01060FE0
:10489000111DC017D10741F0F9900E94C62368E0AE
:1048A0008F2D0E942024F5CFCDB7DEB7E5E00C9424
:1048B000CF2C1F920F920FB60F9211240F931F93BC
:1048C0002F933F934F935F936F937F938F939F9318
:1048D000AF93BF93EF93FF93CF93DF931F92CDB727
:1048E000DEB719820E94BE23CE0101960E94CC231E
:1048F000082F069506950695902F96959570202F72
:104900002570920F292F237096959695920F877098
:1049100089135FC0898181115CC0043008F059C0DF
:1049200080E18A95F1F75A9A529A82E08A95F1F7D6
:1049300000C05A9888E0089F80011124D801AD5F1B
:10494000BE4F1696ED91FC9117973097A9F06091A4
:104950003B0170913C0114962D913C911597260FC7
:10496000371F11968D919C911297680F791F13969E
:104970004C9113978C910995F801ED5FFE4F63817F
:10498000662351F080913B0190913C012481358157
:10499000820F931F0E9440240E94C62380E18A95C3
:1049A000F1F75A9852985A9A80E18A95F1F7F801EE
:1049B000ED5FFE4F6081662351F080913B01909145
:1049C0003C0121813281820F931F0E94F4230E94B7
:1049D000BE230F90DF91CF91FF91EF91BF91AF91E7
:1049E0009F918F917F916F915F914F913F912F9107
:1049F0001F910F910F900FBE0F901F9018950F935E
:104A00001F93CF93DF93843091050CF06DC0EC01C0
:104A1000F894529A5A9885E08A95F1F700009C2FF5
:104A2000969595702C2F2570920F892F83709695EF
:104A3000969523E0CC0FDD1F2A95E1F7980F8E01A4
:104A4000092B0E94C62384E08A95F1F700C068E034
:104A5000802F0E94202480E18A95F1F752985A9A7B
:104A60004A9902C000C0FCCF87E090E04A9B08C092
:104A7000019721F4529A5A9A789436C000C0F6CF22
:104A8000FE01ED5FFE4F6381662381F080913B0163
:104A900090913C0124813581820F931F0E94F42361
:104AA000811104C0529A5A9A78941FC00E94BE2362
:104AB00080E28A95F1F75A98529A80E18A95F1F747
:104AC000CD5FDE4F6881662351F080913B0190916C
:104AD0003C0129813A81820F931F0E9440240E9449
:104AE000C623789481E001C080E0DF91CF911F91CF
:104AF0000F910895809127020895089508959B01CC
:104B000090916F029430F1F48F708093E9008FEFF1
:104B10009091E800815095FD06C095ED9A95F1F7CA
:104B200000008111F5CF8091E80085FF0BC0BA012C
:104B3000C90140E050E00E94B4278091E8008E77E0
:104B40008093E8000895CF93DF93EC0148E050E0B4
:104B5000BC0181E00E947F2588E0FE01AFE1B2E068
:104B600001900D928A95E1F7DF91CF91089560321F
:104B700031F4BC0140E250E082E00E947F250895BC
:104B800080916E02811109C00E9484290E94E1294E
:104B90008091E20084608093E200089510926E029A
:104BA00008950E94A922089560916B0281E061112D
:104BB00001C080E00E949022089590916F0281E0F0
:104BC000943009F080E060916B020E949622089573
:104BD00042E061EC81E00E94FD2842E261EC82E06B
:104BE0000E94FD2842E260EC83E00E94FD28909143
:104BF0006F0281E0943009F080E060916B020E94C6
:104C0000A022089580917102833009F461C030F4CC
:104C1000813071F0823009F49BC008958A3009F424
:104C200087C08B3009F46CC0893009F0A9C020C05E
:104C300080917002813A09F0A3C08091E800877FDB
:104C40008093E8008091740290917502892B21F481
:104C500068E08FE192E003C060E080E090E070E007
:104C60000E943E288091E8008B778093E8000895A9
:104C700080917002813209F083C08091740290911A
:104C80007502892B09F07CC08091E800877F8093B2
:104C9000E8008091E80082FD05C080916F028111DB
:104CA000F8CF6EC02091F3008091F20090E0922B3B
:104CB000029731F48091F100813011F0863021F4B7
:104CC0008091F100809327028091E8008B7754C097
:104CD00080917002813A09F053C0809174029091E2
:104CE0007502892B09F04CC08091E800877F809382
:104CF000E8008091E80080FFFCCF8091290137C057
:104D0000809170028132E1F5809174029091750278
:104D1000892BB1F58091E800877F8093E8000E949D
:104D2000322980917202809329010E9476050895AC
:104D300080917002813221F58091E800877F809315
:104D4000E8000E943229809173028093280208951E
:104D500080917002813AA1F48091E800877F80936E
:104D6000E8008091E80080FFFCCF809128028093CA
:104D7000F1008091E8008E778093E8000E9432294C
:104D8000089584B7877F84BF0FB6F894A895809163
:104D90006000886180936000109260000FBE90E018
:104DA00080E80FB6F89480936100909361000FBE85
:104DB0000E94A32208950E9484290E94E129E2EE24
:104DC000F0E080818460808378940E946C2C089548
:104DD00081E291E00E941922089580916F0285304E
:104DE000A9F480916F02853079F40E9400238091AC
:104DF0006D028823B1F30E94BC22882391F30E94A4
:104E00009E270E947605EDCF0E942B230895A0E2F5
:104E1000B0E0EDE0F7E20C94B62C80916F028430A4
:104E200011F583E08093E9008091E80082FF1BC0C8
:104E30008091E80085FF0AC040E050E060E270E049
:104E4000CE0101960E94F92791E001C090E0809187
:104E5000E8008B778093E800992329F060E2CE0187
:104E600001960E94DB16A096E2E00C94D22C9A01E7
:104E700040917602509177020E943F270895492F72
:104E8000552743305105C9F060F44130510581F098
:104E90004230510509F04AC082E490E04CE854E009
:104EA00049C04132510511F14232510579F13EC0FC
:104EB00082E190E04EEC54E03DC0992781309105AD
:104EC00061F040F08230910559F0039779F5ECE4F8
:104ED000F4E008C0E8E8F4E005C0ECE7F4E002C064
:104EE000EAE6F4E0849190E0AF0124C06115710519
:104EF00041F061307105D1F489E090E047EB54E076
:104F000019C089E090E04EE954E014C061157105C4
:104F100041F06130710551F482E290E040EE54E0DE
:104F200009C084E490E042E055E004C080E090E0F5
:104F300040E050E0F90151834083089580E189BD4C
:104F400082E189BD09B400FEFDCF8091D8008F7D3C
:104F50008093D8008091E00082608093E00080918F
:104F6000E00081FDFCCF0895A0E0B0E0EAEBF7E2BD
:104F70000C94B02CEC018B017A010E945129811113
:104F800033C0E114F10439F0F70180819181081BED
:104F9000190BC80FD91FC12CD12C0115110519F1FE
:104FA0008091E80085FD16C08091E8008E7780939F
:104FB000E800E114F10449F0F70180819181C80E05
:104FC000D91ED182C08285E00FC00E94512988235A
:104FD00021F30AC089918093F10001501109FFEF7C
:104FE000CF1ADF0ADACF80E0CDB7DEB7E8E00C9465
:104FF000CC2CA0E0B0E0EFEFF7E20C94B02CEC0189
:105000008B017A010E945129811133C0E114F1040E
:1050100039F0F70180819181081B190BC80FD91F46
:10502000C12CD12C0115110519F18091E80085FDE5
:1050300016C08091E8008B778093E800E114F104BA
:1050400049F0F70180819181C80ED91ED182C082BA
:1050500085E00FC00E945129882321F30AC0809166
:10506000F100899301501109FFEFCF1ADF0ADACF5F
:1050700080E0CDB7DEB7E8E00C94CC2C209176022E
:10508000309177022617370748F06115710539F41A
:105090002091E8002E772093E80001C0B901FC01BF
:1050A00020E06115710579F180916F028823F1F19B
:1050B0008530F1F18091E80083FD3CC08091E800EB
:1050C00082FD2EC08091E80080FFEBCF2091F3009D
:1050D0008091F20090E0922B6115710551F08830BB
:1050E000910538F421912093F100615071090196E6
:1050F000F3CF21E0089709F020E08091E8008E7757
:105100008093E800CECF2111CFCF0AC080916F02EB
:10511000882361F0853061F08091E80083FD0AC04A
:105120008091E80082FFF2CF80E0089582E0089548
:1051300083E0089581E0089520917602309177020E
:105140002617370748F06115710539F42091E800FA
:105150002E772093E80001C0B901FC0120E0611521
:10516000710591F180916F02882309F440C0853068
:1051700009F43FC08091E80083FD3DC08091E800C4
:1051800082FD2FC08091E80080FFE9CF2091F300DD
:105190008091F20090E0922B6115710559F08830F2
:1051A000910540F424912093F100319661507109EA
:1051B0000196F2CF21E0089709F020E08091E80005
:1051C0008E778093E800CBCF2111CCCF0AC080919D
:1051D0006F02882361F0853061F08091E80083FDE3
:1051E0000AC08091E80082FFF2CF80E0089582E05B
:1051F000089583E0089581E00895982F973068F529
:105200009093E900981739F07091EC002091ED002F
:105210005091F00003C0242F762F50E021FD02C0F2
:105220009F5FECCF3091EB003E7F3093EB003091ED
:10523000ED003D7F3093ED003091EB003160309315
:10524000EB007093EC002093ED005093F000209160
:10525000EE0027FDE5CF80E008958F708093E90090
:1052600081E008958091700287FF11C08091E8006D
:1052700082FD05C080916F028111F8CF11C080912D
:10528000E8008B770BC080916F02882349F08091F2
:10529000E80080FFF8CF8091E8008E778093E800E7
:1052A00008952091E4003091E50095E64091EC00EE
:1052B000842F817040FF23C08091E80080FD1DC0D5
:1052C00080916F02882399F0853099F08091EB00EE
:1052D00085FD11C04091E4005091E5002417350789
:1052E00029F3915011F09A01E1CF84E0089582E012
:1052F000089583E0089581E0089580E00895409145
:10530000E80042FFDDCF08950E94F3290E94FB29A7
:10531000E0EEF0E0808181608083E8EDF0E0808164
:105320008F77808319BCA7EDB0E08C918E7F8C9332
:1053300080818F7E808310926E0208950F931F9359
:10534000CF93DF930E94F3290E94FB29C8EDD0E0A0
:1053500088818F77888388818068888388818F7D22
:10536000888319BC10926F0210926B0210926D022A
:1053700010926C0200EE10E0F80180818B7F808338
:1053800088818160888342E060E080E00E94FD289F
:10539000E1EEF0E080818E7F8083E2EEF0E08081BC
:1053A00081608083808188608083F80180818E7F26
:1053B0008083888180618883DF91CF911F910F91D5
:1053C0000895E8EDF0E080818F7E8083E7EDF0E0E6
:1053D00080818160808384E082BF81E080936E025F
:1053E0000E949E290895E8EDF0E080818E7F808301
:1053F0001092E20008951092DA001092E1000895F0
:105400001F920F920FB60F9211242F933F934F9339
:105410005F936F937F938F939F93AF93BF93EF931C
:10542000FF938091E10082FF0BC08091E20082FF38
:1054300007C08091E1008B7F8093E1000E946B2C7C
:105440008091DA0080FF1FC08091D80080FF1BC0D0
:105450008091DA008E7F8093DA008091D90080FFFE
:105460000DC080E189BD82E189BD09B400FEFDCF98
:1054700081E080936F020E94C02505C019BC109284
:105480006F020E94CE258091E10080FF19C08091BB
:10549000E20080FF15C08091E2008E7F8093E200E1
:1054A0008091E20080618093E2008091D800806268
:1054B0008093D80019BC85E080936F020E94D425A8
:1054C0008091E10084FF30C08091E20084FF2CC015
:1054D00080E189BD82E189BD09B400FEFDCF8091E4
:1054E000D8008F7D8093D8008091E1008F7E8093DB
:1054F000E1008091E2008F7E8093E2008091E200E3
:1055000081608093E20080916B02882311F084E037
:1055100007C08091E30087FD02C081E001C083E005
:1055200080936F020E94DD258091E10083FF29C0F6
:105530008091E20083FF25C08091E100877F809306
:10554000E10082E080936F0210926B028091E10093
:105550008E7F8093E1008091E2008E7F8093E20055
:105560008091E20080618093E20042E060E080E0B0
:105570000E94FD288091F00088608093F0000E94D6
:10558000D125FF91EF91BF91AF919F918F917F9125
:105590006F915F914F913F912F910F900FBE0F90A0
:1055A0001F9018951F920F920FB60F9211242F93F0
:1055B0003F934F935F936F937F938F939F93AF939B
:1055C000BF93CF93DF93EF93FF93C091E900CF7028
:1055D0008091EC00D82FD17080FDD0E81092E900C6
:1055E0008091F000877F8093F00078940E94162BC2
:1055F0001092E9008091F00088608093F000CD2B3C
:10560000CF70C093E900FF91EF91DF91CF91BF91EF
:10561000AF919F918F917F916F915F914F913F914A
:105620002F910F900FBE0F901F901895AAE2B0E037
:10563000ECE1FBE20C94B52CE0E7F2E08091F100A4
:10564000819322E0E837F207C9F70E940226809191
:10565000E80083FF2EC18091700290917102492F62
:1056600050E04A30510508F024C1FA01E059FF4FDB
:105670000C94992C803821F0823809F01AC108C0A6
:1056800080916C0290916D02992389F082600FC025
:10569000809174028F70873008F00BC18093E9000D
:1056A0008091EB0085FB882780F91092E9009091AA
:1056B000E800977F9093E8008093F1001092F1004A
:1056C000D1C0282F2D7F09F0F4C0882319F0823033
:1056D00061F0EFC080917202813009F0EAC093302E
:1056E00009F080E080936D022EC0809172028111DA
:1056F0002AC0809174028F702FEF280F263008F097
:10570000D8C08093E9002091EB0020FF1CC09330AB
:1057100021F48091EB00806214C09091EB009061C5
:105720009093EB0021E030E0A90102C0440F551F27
:105730008A95E2F74093EA001092EA008091EB002C
:1057400088608093EB001092E9008091E800877FE9
:105750008093E8000E943229ACC08111AAC0109148
:1057600072021F778091E3008078812B8093E300A1
:105770008091E800877F8093E8000E943229809121
:10578000E80080FFFCCF8091E30080688093E30015
:10579000111102C082E001C083E080936F0289C0D2
:1057A0008058823008F085C0809172029091730217
:1057B0008C3D53E0950779F583E08A838AE28983FB
:1057C0004FB7F894DE01139620E03EE051E2E32F5C
:1057D000F0E050935700E49120FF03C0E295EF7092
:1057E0003F5FEF708E2F90E0EA3010F0C79601C057
:1057F000C0968D939D932F5F243149F74FBF8091C1
:10580000E800877F8093E8006AE270E0CE010196AD
:105810000E943E2816C06091740270917502AE011C
:105820004F5F5F4F0E943727BC01892B09F441C0AD
:105830009091E800977F9093E80089819A810E9477
:105840009C288091E8008B778093E80032C08038F4
:1058500081F58091E800877F8093E80080916B025A
:105860008093F1008091E8008E7772CF811121C082
:10587000809172029091730299270297D4F48091DB
:10588000E800877F8093E8008091720280936B022A
:105890000E94322980916B02811106C08091E30041
:1058A00087FD02C081E001C084E080936F020E9406
:1058B000E8258091E80083FF0AC08091E800877F97
:1058C0008093E8008091EB0080628093EB00AA96C1
:1058D000E3E00C94D12C0895CF9380916F0288233C
:1058E000A1F0C091E900CF709091EC00892F8170F8
:1058F00090FD80E8C82B1092E9008091E80083FDBC
:105900000E94162BCF70C093E900CF9108950E949A
:10591000842910926F020895E8EDF0E080818061A3
:1059200080838AE18A95F1F700C08091D900817067
:105930000895EE0FFF1F0590F491E02D099469275B
:105940009627692778278727782708952F923F92EF
:105950004F925F926F927F928F929F92AF92BF927F
:10596000CF92DF92EF92FF920F931F93CF93DF932B
:10597000CDB7DEB7CA1BDB0B0FB6F894DEBF0FBE88
:10598000CDBF09942A88398848885F846E847D84D5
:105990008C849B84AA84B984C884DF80EE80FD80D7
:1059A0000C811B81AA81B981CE0FD11D0FB6F8944D
:1059B000DEBF0FBECDBFED010895FB01DC0102C0CB
:1059C00005900D9241505040D8F70895FB01DC013D
:1059D00004C08D910190801921F441505040C8F7C6
:1059E000881B990B0895FB01DC0102C001900D9208
:1059F00041505040D8F70895DC0101C06D934150EB
:105A00005040E0F70895F999FECF92BD81BDF89A14
:105A1000992780B50895A8E1B0E042E050E00C94E9
:105A2000472DDC01A40FB51F4150504048F0CB0179
:105A3000840F951F2E910E94222D41505040D0F787
:105A40000895262FF999FECF92BD81BDF89A01974E
:105A500000B4021639F01FBA20BD0FB6F894FA9AB6
:105A6000F99A0FBE08950396272F0E94222D0E94B7
:105A7000212D252F0E94222D242F0C94222D0196BA
:105A8000272F0E94222D0C94212DDC01CB01FC013B
:105A9000F999FECF06C0F2BDE1BDF89A319600B487
:0E5AA0000D9241505040B8F70895F894FFCF92
:105AAE00A901010000000100000000000000040137
:105ABE00000000040500000000000001AF0003021A
:105ACE00017A25A3257D257E2501F82FD8222A834C
