:100000000C9494010C94B1010C94B1010C943E1920
:100010000C94B1010C94B1010C94B1010C94B10198
:100020000C94B1010C94B1010C94EC1E0C94C01F03
:100030000C94BB170C94B1010C94B1010C94B10158
:100040000C94B1010C94B1010C94B1010C94B10168
:100050000C94B1010C945E180C94B1010C94B10194
:100060000C94B1010C94B1010C94B1010C94B10148
:100070000C94B1010C94B1010C94B1010C94B10138
:100080000C94B1010C94B1010C94B1010C94B10128
:100090000C94B1010C94B1010C94B1010C94B10118
:1000A0000C94B1010C94B1010C94B10114001A002C
:1000B00008001500170004001600070009000A00D8
:1000C0001D221B00060019000500E000E300E2000D
:1000D0002C2200001C0018000C00120013000B0062
:1000E0000D000E000F002800110010003600370030
:1000F00038002C412C002A42E1002A0014001A008A
:1001000008001500170004001600070009000A0087
:100110001D221B00060019000500E000E300E200BC
:100120002C2200001C0018000C00120013000B0011
:100130000D000E000F0028001100100036003700DF
:1001400038002C412C002A42E1002A0014001A0039
:1001500008001500170004001600070009000A0037
:100160001D221B00060019000500E000E300E2006C
:100170002C2200001C0018000C00120013000B00C1
:100180000D000E000F00280011001000360037008F
:1001900038002C412C002A42E1002A000000000017
:1001A000000000002A2B28000000000000000000D2
:1001B0000000000000000029000000002C1E342078
:1001C000212224342627252E362D3738271E1F209E
:1001D0002122232425263333362E37381F040506E3
:1001E0000708090A0B0C0D0E0F1011121314151627
:1001F0001718191A1B1C1D2F3130232D3504050625
:100200000708090A0B0C0D0E0F1011121314151606
:100210001718191A1B1C1D2F3130354C0000000017
:1002200000000000000000000000000000000000CE
:1002300000000000000000000000000000000000BE
:100240007E0F00D4FFFFFFC700000078100363009B
:100250006F006F006C0039003300390000000A03A2
:100260006D002E006B006900000004030904090200
:100270004200020100A0FA0904000001030101008C
:100280000921110100012244000705810308000132
:1002900009040100020300000009211101000122EC
:1002A0002200070582032000010705030320000147
:1002B0001201000200000008434D3909000101024B
:1002C00000010660FF0961A1010962150026FF0017
:1002D0009520750881020963150026FF0095207599
:1002E000089102C005010906A101050719E029E7E7
:1002F0001500250195087501810295017508810198
:100300000507190029FF150026FF009506750881CD
:1003100000050819012905150025019505750191AC
:1003200002950175039101C011241FBECFEFDAE0E1
:10033000DEBFCDBF11E0A0E0B1E0E0EAF4E402C02E
:1003400005900D92A433B107D9F722E0A4E3B1E000
:1003500001C01D92A031B207E1F70E94C4120C94B3
:1003600025220C9400008330B8F46830A8F445309E
:1003700098F450E095E0699F400D511D1124FA0159
:1003800098E2899FE00DF11D1124EE0FFF1FE45547
:10039000FF4F85919491089581E090E0089581E068
:1003A00008950E94CF01089581E008950E94CF0131
:1003B00008950E94D601089508950E94DC010895D1
:1003C000A6E0B0E0E6EEF1E00C94952149835A8373
:1003D0009E8330913B0189819A8131111AC03E81FF
:1003E000332399F0222389F00E94CD06182F682F1D
:1003F00089819A810E94A90669817A81812F0E9450
:100400008D0D2696E3E00C94B1210E94BB06182FB7
:10041000F3CF0E94CD0669817A81F1CFFC01262FAE
:100420004081518162817381848195810E94E001C4
:100430000895CF93DF93EC0161E00E940E02BE01AC
:100440000E94D101DF91CF910895CF93DF93EC010A
:1004500060E00E940E02BE010E94DD01DF91CF919B
:10046000089581E008950E9431020895CF93C82F26
:100470000E94A5058C2F0E9433022FEF84E39CE09D
:10048000215080409040E1F700C00000CF910895D6
:1004900081E00E9436020E948218089580E00E9446
:1004A00036020E94931808950F931F93CF93DF9302
:1004B0008C0161E00E940E02EC01B8010E9400165E
:1004C000811106C080E0DF91CF911F910F910895B7
:1004D000B801CE010E94D9018823A1F3B801CE0151
:1004E0000E945115882371F3F8018581882361F0FA
:1004F000C330FCE7DF07E9F058F4C115ECE7DE078D
:10050000A9F0C130DC47B9F0C8010E94D401DBCFAB
:10051000CB358CE7D807A9F0CC35ECE7DE0771F0D6
:10052000CA35DC4789F70E94030BEECF0E944802D0
:10053000C9CF0E940B0B0E944E02C4CF0E94F90A41
:10054000E3CF0E94070BE0CF0E9498170E94CB02D6
:1005500008950E94CF020E949D170895089581E09A
:1005600008950895CF93DF93D82F0E94AF02C82F2C
:10057000882319F08D2F0E94B1028C2FDF91CF912B
:1005800008950895CF93C82F0E94AE028C2F0E9429
:10059000B202CF91089580E00E94C20208950E94A5
:1005A000EC160E94C2020895CF930E94EC16C82F49
:1005B000809136018C1779F0C09336010E9427187C
:1005C00060933701709338018093390190933A0119
:1005D0008C2F0E94C202CF910895ADE0B0E0E3EF0E
:1005E000F2E00C949621488759876A877B878C872D
:1005F0009D8791110E94390A1F8286E0FE0138967C
:10060000DE01119601900D928A95E1F78D8181119D
:100610000DC029813A814B815C816D817E818F8102
:100620000E9486092D96E2E00C94B221CE0101963B
:100630000E9419028111EDCFF5CFFC0124812130F8
:1006400021F4808191810E94FA060895CF93C82FEA
:10065000882399F08CEF8C0F813A88F48C2F0E94BC
:100660002017882329F08C2F0E9463170E94A80A64
:100670008C2F0E945B170E94A80ACF91089580E2F8
:100680008C0F8830D0F7C77081E001C0880FCA9501
:10069000EAF70E941C0AEFCF882341F09CEF980FE5
:1006A000913A28F40E9463170E94A80A089590E2E4
:1006B000980F9830D8F7877091E001C0990F8A950C
:1006C000EAF7892F0E94220AEFCF1F93CF93DF937F
:1006D000182FEB010E942603209739F4812F0E94E6
:1006E0004C03DF91CF911F9108958FE99FE001970F
:1006F000F1F700C000002197EFCF70E060E0893390
:1007000011F460E570E00E9465030895882321F0EC
:100710000E941C0A0E94A80A0895882321F00E94C2
:10072000220A0E94A80A0895B0E0A0E0EAE9F3E0F6
:100730000C948F216C01D62FC72FFC0115810681E7
:1007400002950F700E94150AE82E8823F9F0E12E19
:100750001123E1F08C2F807F803461F080E28D0FD7
:10076000883008F18C2F807E803221F4D230D8F08E
:100770000023C9F08091EC0182FF15C082E00E9445
:10078000CD0A0E94150A91E0E82EE926BC2EB2940B
:100790009FE0B922FBE0FB15B8F1EB2DF0E0E95D3D
:1007A000FD4D0C947921E12CF1CF0C2F0F70C07FFF
:1007B00011F00295007F112399F0002359F080E297
:1007C0008D0F883010F0D11107C0802F0E941C0AB5
:1007D0000E94A80A8D2F5AC0802F0E942C0AF8CFA1
:1007E0008D2F0E944C03002379F080E28D0F88301A
:1007F00010F0D11104C0802F0E94220A03C0802F64
:100800000E94320A0E94A80AEB2DE850FF0B349791
:1008100020F40E94EC160E94C202EE2089F00E9491
:10082000110A80FD0DC0F60115820E940B0A0E947C
:100830001D06C6010E9478050E940B0A0E94290627
:10084000CDB7DEB7E9E00C94AB212C2F2F70F22E40
:10085000C07FC03219F0F29480EFF822DD2341F01E
:10086000D130D1F1112309F444C00023F1F0B2CF0B
:100870008091EC0182FD15C0112359F0FF2029F071
:100880008F2D0E941C0A0E94A80A80E00E94260365
:10089000BBCF80E00E944C03FF2009F4B5CF8F2D21
:1008A000ABCF112369F0011104C08F2D0E94860384
:1008B000ABCF013009F0A8CF8F2D0E94500AA4CFF2
:1008C0000111A2CF8F2D0E948D038F2D0E945C0AF3
:1008D0008F2D0E94400A98CF112321F0063008F096
:1008E00093CFE3CF053008F08FCF8F2D0E948D037B
:1008F0008BCF0023D1F3D93349F43FEF87EE93E058
:10090000315080409040E1F700C000008D2F0E94E0
:100910004C037ACF8C2F837079F5111175CF4D2F41
:10092000429546954770440F440F8D2F8F70042ECB
:1009300001C0880F0A94EAF72D2F2071D4FF07C059
:100940002FE030E001C0220F4A95EAF72095C695C6
:10095000C695C370822BC23049F058F4C13019F0EB
:100960000E94F90551CF0E94F3054ECF0E94FF056A
:100970004BCF0E94F00548CF8695112311F08C2FA4
:100980008170882309F440CF4D2F429546954770DA
:10099000440F440F8D2F8F70042E01C0880F0A94CE
:1009A000EAF72D2F2071D4FF07C02FE030E001C0FF
:1009B000220F4A95EAF72095C695C695C370822BFB
:1009C000C23049F058F4C13019F00E9448061CCFDB
:1009D0000E94420619CF0E944E0616CF0E940B06B7
:1009E00013CFCF70112329F08C2F0E941D068D2F5D
:1009F0005DCF8D2F0E948D038C2F0E94290604CF7E
:100A0000D23F41F160F4D03FB9F0D13F81F01123E2
:100A100009F446C00111DECE8C2F8F711FC0D33F69
:100A200001F1D43FA1F78091EC0182FD24C08C2F0D
:100A30008F71112311F312C0112341F0053008F01A
:100A4000E3CE8C2F8F710E943606DECE063008F082
:100A5000DBCEF7CF8C2F8F711111CFCF0E941D06E7
:100A6000D3CE112329F08C2F8F710E941406CCCE87
:100A70000E941006C9CE112349F0CF718C2F0E941D
:100A80001D0663E08C2F0E94AF0ABECE81E00E945B
:100A9000CD0A023008F4B8CE82E00E94CD0AB4CE6E
:100AA000002359F0D93309F031CFEFEFF7EE23E00F
:100AB000E150F0402040E1F727CF8C2F8F719DCF80
:100AC0000F931F93CF93DF93EC01688179818D8120
:100AD0000E9405078C010E9454060E94EF05B80190
:100AE000CE010E949403DF91CF911F910F91089541
:100AF000CF93DF93EC018C81882399F0CE010E9483
:100B00005402811111C00E94150A882351F08D8171
:100B1000882339F08091EC0182FF03C082E00E94BB
:100B2000CD0ADF91CF910895CE010E946005CE01DC
:100B30000E942502F6CF0E94390A0E94A80A089551
:100B40000E946B170E949B0508950E94290A0E942B
:100B5000A005089592959F70963091F058F4925F99
:100B60009F70923058F4803F19F030F4883E30F492
:100B700081E008959A5FF4CF843FD1F380E0089537
:100B8000883EB0F3813FD1F7F3CFFC0124812223CB
:100B900039F0808191810E94FA060E94AA05089589
:100BA00080E00895A6E0B0E0E8EDF5E00C94962131
:100BB0002696E2E00C94B221A7E0B0E0E2EEF5E088
:100BC0000C9496212796E2E00C94B22108950E949D
:100BD000E60508950E94E70580934C010895089565
:100BE0000E94EA05089590914C01892B0E94EA0524
:100BF000089590914C0189230E94EA0508959091EF
:100C00004C0189270E94EA0508950E94E60508958F
:100C10000E94050608950E94080680934B010895DE
:100C200080E00E940B06089591E001C0990F8A951B
:100C3000EAF7892F0E940B06089521E030E001C0F9
:100C4000220F8A95EAF780914B01822B0E940B06B6
:100C5000089521E030E001C0220F8A95EAF720953F
:100C600080914B0182230E940B06089521E030E021
:100C700001C0220F8A95EAF780914B0182270E94DA
:100C80000B06089590914B01892B0E940B06089545
:100C900090914B0189230E940B06089590914B017E
:100CA00089270E940B0608950895262F277091E04A
:100CB00001C0990F2A95EAF723E0769567952A9562
:100CC000E1F7FB01EE0FFF1FE60FF71FE40FF51F23
:100CD00050E040E0682F70E08191DF0111979B01A7
:100CE000042E02C0369527950A94E2F721702195CB
:100CF0002827292328272C934F5F5F4F4330510526
:100D000059F70895A82FA77023E0969587952A95FF
:100D1000E1F7FC01EE0FFF1FE80FF91FE60FF71FC9
:100D200050E040E080E0219130E00A2E02C036958C
:100D300027950A94E2F721703327042E01C0220F71
:100D40000A94EAF7822B4F5F5F4F4330510559F702
:100D50000895262F983070F4853060F4682F70E085
:100D600085E0989F600D711D11244CE351E0822FA6
:100D70000E9455060895292F983068F4853058F45C
:100D800090E06CE371E035E0239F800D911D11240C
:100D90000E948206089580E00895CF92DF92FF922C
:100DA0000F931F93CF93DF936C0100914B018091C0
:100DB0004C01082BC3E0D0E010E0FC2EC8010C2E43
:100DC00002C0959587950A94E2F780FD0CC02197A3
:100DD000A0F7F12C8F2DDF91CF911F910F91FF90F4
:100DE000DF90CF900895B6018C2F0E94990D019746
:100DF00071F3F0CFCF93DF93EC010E94CD06BE01DB
:100E00000E94990DDF91CF9108951F93CF93DF93A7
:100E1000EB0190913B01992339F0CB010E94FA0636
:100E2000DF91CF911F910895882369F0CB010E9433
:100E3000CD06182F682FCE010E94A906BE01812F72
:100E40000E94990DEDCFCB010E94BB06182FF6CF63
:100E5000E1E0F0E0DF0102C0AA0FBB1F6A95E2F7F4
:100E6000BD01DF0102C0AA0FBB1F4A95E2F76A2B42
:100E700001C0EE0F2A95EAF7962F9823961302C029
:100E80008E2B0895E0958E230895242F462F682FEA
:100E900080914B010E9428070E940B0608951F9322
:100EA000CF93DF93C0914D0117E080914E018C13D9
:100EB00004C0DF91CF911F910895D0E01C9FF001F5
:100EC0001D9FF00D1124E15BFE4F20813181428195
:100ED00053816481758186810E94DC052196C770EB
:100EE000E4CF209187013091880140918901509190
:100EF0008A0160918B0170918C0180918D010E941B
:100F0000DC050895CF93DF9380918D01807F09F0F8
:100F10004DC080918C01882309F448C0E0914D01B7
:100F200050914E01C0918801D09187016091890153
:100F300070918A0147E05E17C9F18E2F90E0E49F1F
:100F4000F0011124E15BFE4F2481222391F1489F9F
:100F5000F001499FF00D1124DF01A15BBE4F1196F6
:100F60002C9111972C1325C02C912D1322C015966E
:100F70002C91159721111DC012962D913C91261B85
:100F8000370B283C3105A8F480918D018F7080616A
:100F900080938D01EB5AFE4F80818F70806180833A
:100FA00087E891E00E9478050E944F07DF91CF917A
:100FB0000895FC013196E770BECF482F20914D0176
:100FC00090914E0157E0291302C080E0089530E06F
:100FD000529FF001539FF00D1124E15BFE4F818180
:100FE000681306C08081481303C085818111EECF4C
:100FF0002F5F3F4F2770E7CFA4E1B0E0E2E0F8E0D9
:101000000C948C218C0186E0F801DE011F96019082
:101010000D928A95E1F7F8018481E58097E8A92E81
:1010200091E0B92E90918B0191111FC08823D1F0CE
:10103000EE20A9F0C8010E94C505F82E882379F09A
:1010400087E0F801D50101900D928A95E1F7C5017D
:101050000E941D030E9482070E9471075FC0C801A1
:101060000E947805FF24F39459C0C080D18082800B
:101070009380F0908C012091890130918A01A40124
:10108000421B530BFF2009F4F9C0483C510508F0FE
:10109000A7C0882309F442C09091880180918D01F6
:1010A000282F207F09F05CC09D1116C09091870108
:1010B000C91212C0E1104EC08F70806180938D0103
:1010C0000E94710787E891E00E94780580918D0168
:1010D000F8018683F12C22C0E1103CC06D2D8C2DCF
:1010E0000E94DD076D2D8C2D0E94DD07E82E8111F9
:1010F000F1CFCF86D88A8F8598890E94FA06292F4A
:1011000022952F70243078F49F702230A8F0992314
:10111000B9F0F8019681907F99F4FE2C8F2D64969A
:10112000ECE00C94A8212A5F2F70223068F0C801EF
:101130000E947805EF2CF1CF992311F0882369F3F1
:10114000805E883050F3F3CF803F38F3815F833087
:1011500070F7E3CF80918D01816080938D01BACFCC
:101160009D1113C090918701C9120FC0E1100DC0ED
:101170008683C8010E94780587E0F801A7E8B1E0FE
:1011800001900D928A95E1F767CFC8010E94C505CD
:10119000882309F464CFEE2009F461CF80918D019A
:1011A000803288F020918701309188013987288723
:1011B0009B868A8690918B019C871D868E87CE01A7
:1011C00008960E94780587E0F801A7E8B1E0019051
:1011D0000D928A95E1F70E9482070E94710742CF23
:1011E00090918D01292F207FA1F4682D9A8A898AF8
:1011F000A6017A899E2D0E94D20587E891E00E947F
:10120000780587E0F50111928A95E9F70E94710748
:1012100061CF882309F482CF809188018D1110C09D
:1012200080918701C8120CC0E1100AC09683C801E2
:101230000E94780587E0F50111928A95E9F76ECF53
:10124000C8010E94C505882309F409CFEE2009F4DE
:1012500006CF80918D01803208F4B5CF20918701AF
:10126000309188013A8329839C828B8290918B01F3
:101270009D831E828F83CE010196A3CF483C5105EA
:10128000B8F5882309F4EECEFE2CEE2009F4E7CE63
:10129000809188018D111EC080918701C8121AC0EB
:1012A00080918D0180FD0DC0982F907F51F0868335
:1012B000903F09F45ECF982F907F905F8F70892BBD
:1012C00057CF87E0F801A7E8B1E001900D928A9529
:1012D000E1F724CFC8010E94C505811174CF809128
:1012E0008D01816080938D01C8010E94780516CF21
:1012F000682D9A8A898AA6017A899E2D0E94D20534
:1013000087E0F50111928A95E9F7A6CEAEE0B0E04C
:10131000ECE8F9E00C949521288739874A875B87A8
:101320006C877D878E87CE0108960E94FC078823F4
:10133000B1F06C85662341F0288539854A855B8547
:101340007D858E850E94DC0517E080914D0190918E
:101350004E0189133DC02E96E3E00C94B12187E045
:10136000FE013896DE01119601900D928A95E1F703
:101370008C85882349F320914E0130E0C901019604
:101380008770992740914D014817190699F097E009
:10139000929FD001939FB00D1124A15BBE4FFE011F
:1013A000319601900D929A95E1F780934E010E943B
:1013B0004F07CACF0E94A50510924E0110924D0111
:1013C00087E0E7E8F1E0DF011D928A95E9F7BCCFFD
:1013D000819FC0011124815B9E4F0E94FC078823DE
:1013E00009F4B9CFE0914D011E9FF0011124E15B9A
:1013F000FE4F2081318142815381648175818681D4
:101400000E94DC0580914D0190E00196877099273C
:1014100080934D019ACF8091960186958695869509
:101420000895809196018770089590919601977024
:1014300081E009F480E008959091A201892B8093C6
:10144000A201089580959091A20198239093A20102
:1014500008951092A20108959091A101892B809383
:10146000A101089580959091A10198239093A101E5
:1014700008951092A101089508950E943C0A0895CC
:1014800090919701292F282331F08095892380930B
:1014900097010E943D0A089508950E944C0A0895FC
:1014A00090919801292F2823281729F0982B9093A1
:1014B00098010E944D0A089590919801292F2823A0
:1014C00031F080958923809398010E944D0A0895F8
:1014D00080919801882329F01092980180E00E9461
:1014E0004D0A08950F931F93CF93DF93009100014E
:1014F00010910101C091A2018091A101C82B80919E
:101500009801882331F0C82B0E940B1781110E948B
:10151000680AF801C083C0910001D091010148E040
:1015200050E06EE871E0CE010E94BD21892B59F098
:1015300088E0FE01AEE8B1E001900D928A95E1F7F6
:10154000CE010E940017DF91CF911F910F91089556
:101550000E94720A089508950E94AB0A089590911E
:10156000EC0192FF11C098E0899F90011124622B39
:10157000609396010E941D0680919601869586953E
:1015800086950E94AC0A08950E941D060895109247
:10159000960180E00E94AC0A089590919601809592
:1015A000892380939601282F277069F4891759F0B1
:1015B0009091EC0192FF07C08695869586950E94D2
:1015C00029060E94C70A08959091EC0192FB2227F8
:1015D00020F9281769F080FB92F99093EC01809133
:1015E000EB019091EC010E942D0B82E00E94CD0A4C
:1015F00008958091EC0182FB882780F991E089278A
:101600000E94E40A089581E00E94E40A089580E0BF
:101610000E94E40A08956FEF7FEF90E080E00E945F
:101620000F22089590E080E00E94DB21863E9E4FCD
:1016300019F40E949A15089580E0089582E090E0E0
:101640000E94D321089583E090E00E94D321089561
:1016500084E090E00E94DB210895BC0184E090E0EA
:101660000E940F220895AB01BC018FE090E00E9420
:1016700003220895AB01BC0183E190E00E940322A4
:10168000089560E070E0CB010E943A0B089560E09D
:1016900070E0CB010E94330B0E94410B0895A8E03B
:1016A000B0E0E5E5FBE00C94962166EE7EEF90E07D
:1016B00080E00E940F2260E082E090E00E94F12131
:1016C00081E080934C0161E083E090E00E94F12191
:1016D00060E074E184E090E00E940F2260E086E028
:1016E00090E00E94F1216FEF87E090E00E94F121ED
:1016F00040E050E0BA0188E090E00E94032260E000
:1017000084E290E00E94F12160E087E190E00E9495
:10171000F12160E08CE090E00E94F12160E08DE03A
:1017200090E00E94F12119821A821B821C821D8284
:101730001E821F82188648E050E068E170E0CE010A
:1017400001960E94E12140E050E0BA0180E290E081
:101750000E94032280E00E94B3150E94E2150E94BD
:10176000470B2896E2E00C94B2210E944F0B08959B
:10177000A6E0B0E0EEEBFBE00C9494210E941B1875
:101780008C018091A3019091A4018017910781F0B1
:1017900019821A820E941B18682F49815A81792F59
:1017A00080E090E00E94ED021093A4010093A30159
:1017B0002696E4E00C94B0210E94B50E6093B1012E
:1017C0007093B2018093B3019093B4016093AD0123
:1017D0007093AE018093AF019093B0010895089586
:1017E00008950E94EF0B089508950E94F40B089548
:1017F00081E008958FEC9EE00E94D1120E94F00BD0
:101800000E94F10B08950E94C5100895089508954F
:101810000E94060C0E94070C08950E94EE0E0E9482
:10182000C10208950E9412180E948F0E0E94F215A4
:101830000E94CB100E941C100E940D0C0E94D61218
:101840000E94DD100E94F50B0895A6E0B0E0EBE2E7
:10185000FCE00C948D210E94F80B81110AC00E94BB
:10186000B80B0E94C5100E94D4022696EBE00C949F
:10187000A9210E943F1085EAA82E81E0B82E7501AB
:1018800010E0F70101917F01812F0E94110F1F5F6E
:10189000183009F441C00817A1F38091B50181FD0A
:1018A0000E94170F0E94030CC82E10E099249394F5
:1018B000812F0E94110F082FF50181915F010817F8
:1018C00029F1D02ED826F12CEE24E3948D2D8E21F3
:1018D000A9F0CC2099F0F9821A830E941B189C83EE
:1018E0008B839D8291E0802F8E2109F490E04981C5
:1018F0005A816B817C818D810E94ED02F394EE0C04
:10190000F5E0FF12E3CFF501319700831F5F183038
:1019100079F60E94DC0BA5CF0813BFCFA0CF1F9391
:10192000CF93DF930E949E0DEC01C11582E5D8078D
:1019300008F03FC0C11590E5D90708F0C2C0C83E05
:10194000D105C0F4C03ED10580F4C53AD10548F4B4
:10195000C430D10550F4C130D10539F0D0E0C0E039
:1019600004C0CD3CD105D0F3D065CE01DF91CF913D
:101970001F910895C11580E4D80708F053C0C11520
:1019800090E2D90708F0B7C0C11581E0D80730F35D
:101990008D2F0E94400E182FCE0199270E949E0D78
:1019A000C12FD0E0DC2FCC27CC27DF71C82BD92B5F
:1019B000DCCFC03892E5D907A8F4C03682E5D80755
:1019C00008F063C0C03492E5D90708F049C0C032BE
:1019D00082E5D80788F1CF71D0E0DC2FCC27C16F2A
:1019E000D06AC3CFC03C92E5D90780F48C2F8F71A9
:1019F000C03AD24508F45EC00E94400EC82FD0E025
:101A0000DC2FCC27CC27DF71D062AFCFC03E82E580
:101A1000D80708F0A3CFDC2FCC27CC27DF71C06F0D
:101A2000D06AA3CFCE0199270E949E0DCC27DF70EC
:101A3000C82BD92BD06A99CF2C2F2695269590E2CA
:101A4000299F900111248C2F8370C1E0D0E002C047
:101A5000CC0FDD1F8A95E2F7C22BD32BDD6885CF33
:101A60002C2F26952695277080E2289F900111241F
:101A70008C2F8370C1E0D0E002C0CC0FDD1F8A95AF
:101A8000E2F7C22BD32BDC6870CF2C2F269526953E
:101A9000277090E2299F900111248C2F8370C1E060
:101AA000D0E002C0CC0FDD1F8A95E2F7C22BD32B0A
:101AB000DA685BCFC82FD0E0DC2FCC27C46FD06AA8
:101AC00054CF8C2F8F710E94400E55E0D695C7954C
:101AD0005A95E1F7CF70D0E0DC2FCC27282F30E0EB
:101AE00084FF05C044E0220F331F4A95E1F7C22B63
:101AF000D32BD0693ACF8D2F8F710E94400E182FB3
:101B0000CE0199270E949E0DC12FD0E0DC2FCC275B
:101B1000CC27DF71C82BD92B77CF462F783030F404
:101B2000653020F4672F0E94A613089590E080E0AE
:101B300008950E948D0D0E948F0C089582389105A2
:101B4000B9F1B0F48133910509F47DC048F48932CC
:101B5000910509F46DC08A32910509F47BC008959E
:101B60008533910509F45FC08933910509F1089522
:101B7000833E9105D9F138F4803E910529F1823EEA
:101B8000910579F10895863E9105D9F1873E910539
:101B900009F43EC0843E910541F52091EC0121FFFE
:101BA00024C08091EB0184FD19C087EE90E0089578
:101BB0002091EB01237009F05AC02091EC0123FF22
:101BC00014C089E290E008952091EB0120FD38C017
:101BD0003091EC0130FF09C024FF43C090E080E069
:101BE00008952091EB0122FDF7CF08952091EB019C
:101BF00022FD3AC03091EC0130FD39C024FFF5CF11
:101C0000EDCF2091EB0123FFF0CF24FDE7CFCDCF27
:101C10002091EB0123FD2EC03091EC0131FFEECF7E
:101C200084EE90E008952091EB0125FFDECFC9CF2F
:101C30002091EB0125FD21C02091EC0123FFD5CFA0
:101C400089E390E0D2CF2091EB0126FFCECF8AE24C
:101C500090E008952091EB0126FFC7CF81E390E04B
:101C6000089583EE90E0089582EE90E0089580EE6E
:101C700090E0089586EE90E0089585E390E0089561
:101C80009091EB0192FF10C041E0282F2471243085
:101C900009F040E031E0282F2871283009F030E0C9
:101CA000431711F02CE0822793FF10C041E0282F4A
:101CB0002471243109F040E031E0282F28712831C7
:101CC00009F030E0431711F02CE082273091EC014D
:101CD00030FF10C051E0282F2171213009F050E071
:101CE00041E0282F2871283009F040E0541711F006
:101CF00029E0822731FF10C041E0282F21712131D6
:101D000009F040E031E0282F2871283109F030E057
:101D1000431711F029E0822794FD877E08951092E1
:101D2000E7011092E8011092E9011092EA0108958A
:101D3000CF92DF92EF92FF926B017C010E94C5105F
:101D400081110EC00E942718C61AD70AE80AF90A9C
:101D5000C092E701D092E801E092E901F092EA0135
:101D6000FF90EF90DF90CF9008950F931F930E9404
:101D7000C510882329F00E9427181F910F910895FC
:101D80000E9427180091E7011091E8012091E901D4
:101D90003091EA01600F711F821F931FEECF80E028
:101DA00008950E940B0B08950E943F102FEF86E7C5
:101DB00091E0215080409040E1F700C000000E9477
:101DC0003F1080E00E94110F80FF04C00E94D10EDE
:101DD0000E94821808950E94D40E08950E94120B4A
:101DE000811102C00E94B50B0E941E0B8093B501A9
:101DF0000E94280B9093EC018093EB010E94EB0E64
:101E00000E94230B0E94F00580914B010E9408065E
:101E1000089508950E94090F089508950E940D0FD6
:101E20000895E82FF0E0EA50FE4F8081089508956C
:101E300080EA8A95F1F7089500C008950E94180F6E
:101E4000089508950E94210F0895EF92FF921F9325
:101E5000CF93DF9300D000D0CDB7DEB70E94C5107E
:101E6000182F6091FE01882309F447C019821A8255
:101E70001B821C82862F90E09E012F5F3F4F7901CD
:101E8000B9018A509E4F0E94EB108823E9F080919F
:101E9000ED0190E044E050E0B7018A509E4F0E946F
:101EA000BD2121E02093B601892BC9F410E00E94E6
:101EB0000E0F812F0F900F900F900F90DF91CF9109
:101EC0001F91FF90EF9008958091B601882371F3E0
:101ED00084E0F70111928A95E9F71092B601E0913A
:101EE000ED01F0E0EA50FE4F89819A81AB81BC811F
:101EF00080839183A283B383DACF70E06A507E4FF0
:101F00008091ED0190E08A509E4F0E9472110E94D4
:101F1000220FCFCFF894E82FE295EF70F0E031A1D7
:101F2000282F2F7081E090E001C0880F2A95EAF7F2
:101F3000982F9095932391A392A1892B82A37894B3
:101F40000895CF93DF9386EF0E948A0F87EF0E9458
:101F50008A0F81E30E948A0F82E30E948A0FC9E2FE
:101F6000D1E089918F3F11F00E948A0F81E0CE323B
:101F7000D807B9F7DF91CF910895B0E0A0E0E3EC86
:101F8000FFE00C949021EC01D62E062F10E0C80142
:101F9000825D9E4F7C01FC0180818F3F09F445C02A
:101FA000F894E82FE295EF70F0E091A18F7021E0B6
:101FB00030E001C0220F8A95EAF7892F822B81A396
:101FC00082A12095282322A378940E941C0FE9E285
:101FD000F1E04EE251E031E0C12C21912F3F51F16F
:101FE000A22FA295AF70B0E090968C9190E02F70E8
:101FF00002C0959587952A95E2F780FD1BC0832F37
:10200000C82A330F4E175F0741F7F70180818F3FD2
:1020100011F00E948A0F61E0C11001C060E08D2DB7
:102020000E941E0FC00FD11FC882CDB7DEB7E8E0F7
:102030000C94AC2180E0E4CF8091020180910201F8
:1020400094E0811190E09093FE0184E0891B8093DD
:10205000ED010E94A10F88E0E6EFF1E0DF01982F8B
:102060001D929A95E9F7EEEEF1E0DF011D928A9557
:10207000E9F784E00E947D100E940A0F0895A8E00D
:10208000B0E0E5E4F0E10C9493218E010F5F1F4F67
:1020900088E0F80111928A95E9F7F12C6F2DC801BB
:1020A0000E94BD0FF394F4E0FF12F8CF48E050E037
:1020B000B8018EEE91E00E94BD2121E0009709F465
:1020C00020E0892B41F088E0F801AEEEB1E001900C
:1020D0000D928A95E1F76091FE0170E06A507E4FA3
:1020E00044E08EEE91E00E947E10182F0E94250F92
:1020F000812B2896E5E00C94AF210895B0E0A0E094
:10210000E4E8F0E10C9490216C017B01042FC22FD4
:10211000222379F081E08093B9010E941B189093EB
:10212000B8018093B70180E0CDB7DEB7E8E00C944A
:10213000AC21D091B901DD23B1F38091B701909129
:10214000B8010E943318059770F310E0A801B6019A
:10215000C7010E94BD21892B31F0A801B601C7013A
:102160000E94CA21CD2F1092B9018C2FDDCFCF93C1
:102170000E946C21C82F811102C00E9467218C2F00
:10218000CF9108958091BD0108958091BC0108957B
:102190000E94C51008950E94B7108093BC010E9450
:1021A000C8108093BD010E94C210809302010E945A
:1021B000C51081110E94211108950E94C51081113E
:1021C00002C00E942411089581E09091BE019A30CE
:1021D00008F080E008950F931F93CF93DF93EC01F5
:1021E0008B018091BE018A30B8F4B801CE010E9403
:1021F0006F11C82F811122C08091BE018F3FB9F4A9
:102200000E941B189093BB018093BA018C2FDF9121
:10221000CF911F910F9108958091BA019091BB01C8
:102220000E943318843F914000F7C0E0EFCF8F5FEA
:102230008093BE018A3020F7C1E0E8CF1092BE0142
:10224000E5CF0E94F81808950E94FB180895B0E0A9
:10225000A0E0EDE2F1E10C9491217901C82F880F03
:10226000DD0B41155105A9F0FE0193E0EE0FFF1FB4
:102270009A95E1F7ED5FFE4F8181928181549E4FE7
:10228000208130E04217530708F49A01A9010E9407
:10229000CA21CE010E94E419D82E8823D1F001155D
:1022A0001105B9F083E0CC0FDD1F8A95E1F7FE013F
:1022B000ED5FFE4F438150E00417150708F4A801B5
:1022C000CD5FDE4F6C817D8161547E4FC7010E94DE
:1022D000CA218D2DCDB7DEB7E7E00C94AD210E9469
:1022E000691208950E9480120895A4E0B0E0EBE71F
:1022F000F1E10C9494216091D4017091D501809109
:10230000D6019091D7010E94421811E06436710500
:102310008105910518F10E94B50E6E5F7F4F8F4FBA
:102320009F4F69837A838B839C8310E000E030E0C9
:1023300020E044E050E0BE016F5F7F4F82E00E94EA
:102340002711182F882351F00E9427186093D40179
:102350007093D5018093D6019093D701812F249655
:10236000E4E00C94B021B0E0A0E0E9EBF1E10C94E2
:102370008E217C015B016A010E94E41001E010E003
:10238000882311F00AE010E0C1E0D0E0B501C701F8
:10239000F6010995811104C021960C171D072CF434
:1023A000CDB7DEB7EAE00C94AA21CC9F9001CD9F77
:1023B000300D300D112490E080E045E34A95F1F7AF
:1023C0000000019682179307C1F7E0CFA5E0B0E0C7
:1023D000ECEEF1E10C948E215B01E0903201F09083
:1023E000330101E010E09E012B5F3F4F50E040E0E1
:1023F00070E060E080E00E942711182F882309F424
:102400004BC067018FEFC81AD80A6091D001709154
:10241000D1018091D2019091D3010E94421864367B
:1024200071058105910580F104E010E09E012F5FA8
:102430003F4F50E040E070E060E081E00E942711F3
:10244000F82E64E070E0C6010E94D71211E09D8171
:10245000981310E01F2159F10E9427186093D001B2
:102460007093D1018093D2019093D30189819A8195
:10247000AB81BC818093CC019093CD01A093CE0120
:10248000B093CF0111E013C064E070E0C6010E9478
:10249000D7129D818913C8CFF70181819281A381D1
:1024A000B48189839A83AB83BC831111DFCF809180
:1024B000CC019091CD01A091CE01B091CF01F50159
:1024C00080839183A283B383812F2596EAE00C94C5
:1024D000AA210F931F93CF93DF93EC018B0146EE5C
:1024E00051E10E94B311882331F045E751E1B80171
:1024F000CE010E94B311DF91CF911F910F910895EA
:102500000F931F93CF93DF93C0913201D09133018A
:10251000CE01019624E0FB01DC0101900D922A9589
:10252000E1F764E070E00E94D71288836D817E81BC
:102530008F8198850091C8011091C9012091CA012D
:102540003091CB01601771078207930751F06093B8
:10255000C8017093C9018093CA019093CB010E9476
:10256000980EDF91CF911F910F9108950E94B71B94
:102570000E94120C0E94C41B08950E94C91B0E9455
:10258000250C0E94E31B08950E94B4170E949D1B16
:102590000E94FA0B0E94B6120E94BD120E94080C03
:1025A000FBCF909335018093340108950895FC0189
:1025B000680F791F8FEF91E36E177F0709F4089575
:1025C0002191822728E030E087FF06C0880F892705
:1025D00021503109C9F7F0CF880FFACF84E0089570
:1025E00050E0440F551F9AE0699F400D511D112482
:1025F00090E5899F400D511D1124CA0189960895C7
:102600000F931F93CF93DF938430C8F46830B8F4EE
:102610004530A8F40E94F0128C010E94D321C82FEB
:10262000D0E0DC2FCC27C80101960E94D3219E0167
:10263000282BC901DF91CF911F910F91089590E050
:1026400080E0F8CF0F931F93CF93DF93122F032FC8
:10265000843078F4683068F4453058F40E94F01201
:10266000EC01602F0E94F121612FCE0101960E94A2
:10267000F121DF91CF911F910F9108951F93CF9377
:10268000DF93D0E0C0E011C0412F6C2F8D2F0E944E
:10269000B3019C01412F6C2F8D2F0E9422131F5FCD
:1026A000153091F7CF5FC83011F010E0EDCFDF5F4C
:1026B000D43041F7DF91CF911F910895EF92FF92AF
:1026C0000F931F93CF93DF93EC018A017C01E60EF9
:1026D000F71ECE018996CE15DF0529F4CDB7DEB7FA
:1026E000E6E00C94AE21C03421E0D20740F40E9411
:1026F000D321F80180830F5F1F4F2196EACFF801A5
:102700001082F9CFB0E0A0E0E8E8F3E10C9490216A
:102710007C016A018C01060F171FEC01CE0189961E
:10272000C017D10729F4CDB7DEB7E8E00C94AC218F
:10273000C03421E0D20740F4FE01EE19FF09EC0D90
:10274000FD1D60810E94F1212196E8CF843038F48C
:10275000683028F4453018F40E940013089590E082
:1027600080E0089580E1089587E992E00895EF926E
:10277000FF920F931F93CF93DF93EC018A017C01AB
:10278000E60EF71ECE0187599E4FCE15DF0529F4C0
:10279000CDB7DEB7E6E00C94AE21C73922E0D20710
:1027A00040F40E94D321F80180830F5F1F4F2196D0
:1027B000E9CFF8011082F9CFB0E0A0E0E2EEF3E15A
:1027C0000C9490217C016A018C01060F171FEC010B
:1027D000CE0187599E4FC017D10729F4CDB7DEB778
:1027E000E8E00C94AC21C73922E0D20740F4FE01A6
:1027F000EE19FF09EC0DFD1D60810E94F12121966B
:10280000E7CFCF93DF93C9E6D1E060E0CE010E942D
:10281000F1212196C11584E0D807B9F7DF91CF9156
:102820000895A8E0B0E0E7E1F4E10C948E21F82EE1
:102830008FE08F1508F46EC08FEF93E00E94D321D4
:10284000811168C009E611E0F11035C0FE01319632
:102850006F0188E011928A95E9F77801FFEFEF1A8E
:10286000FF0AC8010E94D32189831A82882309F4B0
:1028700051C08130D1F4580182E0A80EB11CC701CB
:102880000E94D3218A83882309F444C09FEF980FC4
:102890009330F0F4780193E0E90EF11CC5010E9439
:1028A000D3218B838823B1F11C8260E0C6010E9492
:1028B000EB148701D2CF011594E0190759F1C80133
:1028C0000E94D321811101C0FA940F5F1F4FBCCF2A
:1028D0007501843051F702E010E07501EFEFEE1A58
:1028E000FE0AC5010E94D321F601E00FF11F80838B
:1028F000882381F08C3741F4E2E0F0E0EC0FFD1F1B
:10290000E00FF11F1082D1CF0F5F1F4F570107302B
:10291000110519F72896EAE00C94AA21B0E0A0E08E
:10292000E4E9F4E10C949121E82FF0E0E456FE4F45
:10293000D490282F26952695269530E0F901E45C61
:10294000FD4F0491877010E0082E02C01595079581
:102950000A94E2F701701127F901E45DFD4FE4905C
:10296000F12C082E02C0F594E7940A94E2F791E066
:10297000E922FF24F901E45EFD4FC491D0E002C0DA
:10298000D595C7958A95E2F7C170DD270115110528
:1029900019F081EE0E942603E114F10419F086EE8D
:1029A0000E9426038D2D0E947D03E114F10419F08D
:1029B00086EE0E944C030115110519F081EE0E946C
:1029C0004C03CD2B19F08CE20E947D03CDB7DEB70E
:1029D000E7E00C94AD21EF92FF920F931F93CF93FA
:1029E000DF93EC01162F0AE08881882309F454C094
:1029F000813009F04EC08981813099F47E0122E056
:102A0000E20EF11C8A810E947D03E7012196812F4D
:102A1000815050F3EFE9FFE03197F1F700C000007B
:102A2000F7CF823041F47E0182E0E80EF11C8A810A
:102A30000E942603EACF833041F47E01E2E0EE0EED
:102A4000F11C8A810E944C03E0CF843011F0219662
:102A5000DDCF2A81229690E080E0AE014F5F5F4F8C
:102A60002053330B2A30310548F0019778F2EFE913
:102A7000FFE03197F1F700C00000F7CF089FB001E9
:102A8000099F700D1124C901860F971F2981EA0142
:102A9000E4CF0E948E14BACFCDB7DEB7E6E00C9437
:102AA000AE211F93CF93DF9387372CE7920759F01E
:102AB000C1E088379C47E1F4FB01C581CC2371F16B
:102AC0000E94941506C0FB01C581CC23B1F00E9481
:102AD00091150E941D060E949715D82F0E949415EB
:102AE000C82F0E9491154D2F6C2F0E944507C0E002
:102AF0008C2FDF91CF911F9108950E9491150E9414
:102B000029060E949715182F0E949415D82F0E940D
:102B10009115412F6D2F0E944507EACF0E94941511
:102B2000EECF80911D01089580911C010895809140
:102B30001B01089585E290E00E94D321843289F43C
:102B400086E290E00E94D321813059F487E290E040
:102B50000E94D32191E0863009F090E0892F8170A6
:102B6000089580E0FCCFCF93C82F6FEF811164E20E
:102B700085E290E00E94F1216FEFC11161E086E2F1
:102B800090E00E94F1216FEFC11166E087E290E0D2
:102B90000E94F121CF910895089588E290E00E946B
:102BA000D321682F70E090E080E008950895CF93DE
:102BB000C62F0E94D6156C2F88E290E00E94F1216A
:102BC000CF91089580E00E94B31560E070E0CB01E2
:102BD0000E94D7150E943E130E94011481E00E94BA
:102BE000B31508950E94CC150E94CD150E94D615EC
:102BF0000E949A15811102C00E94E215089508955D
:102C00009C01FB018581882351F0A9015757403869
:102C1000510530F4822F0E94111480E0089581E064
:102C200008952FEFFC01208308950E941116089546
:102C300080E00895B0E0A0E0E0E2F6E10C9490219D
:102C4000EC01E62E0E941816811110C0E881E150B7
:102C5000E331B8F4F0E0ED5CFD4D0C94792119827C
:102C60008CE08A836E2DCE010E94981ACDB7DEB714
:102C7000E8E00C94AC2189818230C1F028F48130E5
:102C800061F08FEF8883EECF833099F08430C9F7FD
:102C90001A821B821C821D82E5CF0E9427180E9487
:102CA0007F216A837B838C839D83DCCF0E94CD153B
:102CB000F6CF8A81082F10E06E0193E0C90ED11C77
:102CC0009CE1F92EF80E0830110560F6802F0E9465
:102CD000110FF60181936F010F5F1F4FF012F3CFB9
:102CE000C1CF8981823031F0853059F68A810E94C6
:102CF000FF15B8CF6A817B818C819D810E947F21E5
:102D00000E94D715AFCF4B816A8189810E94001341
:102D10009827892798279D838C83A4CF2C813D8178
:102D20003227232732274B816A8189810E9422130F
:102D300099CF0E943E1396CF6E2DCE010E9415169C
:102D400091CF0E94B21389838DCF0E94B41398272C
:102D5000892798279A83898385CF6B8170E0898141
:102D60009A81AE014C5F5F4F9827892798270E9470
:102D7000B71378CF6B8170E089819A81AE014C5F87
:102D80005F4F9827892798270E94DC136BCF0E94FA
:102D9000011468CF0E94EE12D6CF6B8170E089815A
:102DA0009A81AE014C5F5F4F9827892798270E9430
:102DB0005E1358CF6B8170E089819A81AE014C5FC0
:102DC0005F4F9827892798270E9482134BCF9093B3
:102DD000DA018093D90108950E94C510811103C0C2
:102DE0008091D8010895E091D901F091DA013097EE
:102DF00029F00190F081E02D0995089580E0089573
:102E0000E091D901F091DA01309721F00280F3814D
:102E1000E02D0995089540910001509101019A011A
:102E20002E5F3F4F485F5F4F80E02417350709F45E
:102E30000895F90191919F019923B9F38F5FF5CF1F
:102E4000882371F02091000130910101F90132963F
:102E5000285F3F4F9191981729F0E217F307D1F7B8
:102E600080E0089581E008959C01FC0132969FEF77
:102E700080E04191461751F09F3F19F4411101C084
:102E8000982F8F5F8630A9F79F3F09F40895290F87
:102E9000311D97FD3A95F90162830895FC01329640
:102EA00008962191261303C0DF0111971C92E817A1
:102EB000F907B9F70895682F8091000190910101F9
:102EC0000E9434170895682F8091000190910101AC
:102ED0000E944E170895E0910001F0910101329691
:102EE00086E0DF011D928A95E9F7089508950E9412
:102EF00076170895811106C081E08093DB010E945E
:102F00007717089582E0F9CF83E08093DB010E9478
:102F1000771708950E947A17089581E08093DB0166
:102F20000E94771708950E948D17089508950895B7
:102F30000E9497170895089508950E94961708957E
:102F4000CF930E949B170E943F100E949C17C0E0E5
:102F50008C2F0E94110F811105C0CF5FC830C1F7BF
:102F6000CF91089581E0FCCF85B7806885BF85B794
:102F7000806885BF08951F921FB61F9211248F93FA
:102F80009F93AF93BF938091DC01811113C0809117
:102F9000FF0190910002A0910102B09102024196BE
:102FA000A11DB11D8093FF0190930002A093010227
:102FB000B0930202BF91AF919F918F911F901FBE5E
:102FC0001F90189580910702843031F10E94A4026D
:102FD0001092DC0188E190E020E40FB6F894A89507
:102FE000809360000FBE2093600083B7817F846070
:102FF00083BF83B7816083BF7894889583B78E7FC2
:1030000083BF0FB6F894A895809160008861809383
:103010006000109260000FBE08950E94A5050E94F6
:10302000A902089582E084BD93E095BD9AEF97BD13
:1030300080936E0008952FB7F8948091FF019091CE
:103040000002A0910102B09102022FBF08952FB794
:10305000F8946091FF0170910002809101029091BB
:1030600002022FBF08959C014FB7F8948091FF0191
:1030700090910002A0910102B09102024FBF821B09
:10308000930B0895CF92DF92EF92FF922FB7F894AF
:10309000C090FF01D0900002E0900102F090020287
:1030A0002FBFA7019601261B370B480B590BCA01EE
:1030B000B901FF90EF90DF90CF90089578941F9220
:1030C0001FB61F9211248F939F93AF93BF9380914C
:1030D000FF0190910002A0910102B09102020196BD
:1030E000A11DB11D8093FF0190930002A0930102E6
:1030F000B0930202BF91AF919F918F911F901FBE1D
:103100001F90189587E797E7909301088093000830
:1031100088E19AE00FB6F894A895809360000FBEFE
:1031200090936000FFCF88E19AE00FB6F894A895DD
:10313000809360000FBE90936000FFCF8EE14A9BAA
:1031400002C08150E1F74A9BFECF08955A9880E271
:103150008A95F1F75A9A0895FC013BE03A95F1F708
:1031600098E020E080E031E040E14A95F1F7880FF7
:103170004A9B02C08160232742E04A95F1F7000094
:1031800040E14A95F1F7915079F790E19A95F1F77E
:1031900099B132E03A95F1F7000040E14A95F1F734
:1031A00092FB992790F992272081920F908308959E
:1031B000A1E0B0E0EEEDF8E10C94922119828C01CF
:1031C0007C01E60EF11C0E151F0541F481E099818A
:1031D000911180E02196E6E00C94AE210E949E18A9
:1031E000CE0101960E94AC18F80181938F01EBCFBC
:1031F000529A5A9A089552985A9AEA9AE9E6F0E051
:1032000080818F7C808308956150770B91E001C0AD
:10321000990F6A95EAF720E031E0911108C0222366
:1032200091F05A9A80E28A95F1F75A980895492FB9
:10323000482339F05A9A232740E24A95F1F79695A8
:10324000ECCF5A98F9CF5A98EDCFFF920F931F9376
:10325000CF93DF93EC018C01060F111DC017D1072E
:1032600029F4CDB7DEB7E5E00C94AF21F9900E94C8
:10327000A61868E08F2D0E940419F0CF1F920F92BC
:103280000FB60F9211240F931F932F933F934F93D9
:103290005F936F937F938F939F93AF93BF93EF93BE
:1032A000FF93CF93DF930F92CDB7DEB719820E94C1
:1032B0009E18CE0101960E94AC18082F069506951F
:1032C0000695282F22952570902F9570290F922F03
:1032D000937026952695920F982797708981982B41
:1032E00009F05CC0043008F059C080E18A95F1F71C
:1032F0005A9A529A82E08A95F1F700C05A9888E06B
:10330000089F80011124D801AD5FBE4F1696ED9144
:10331000FC9117973097A9F06091320170913301B9
:1033200014962D913C911597260F371F11968D916C
:103330009C911297680F791F13964C9113978C915B
:103340000995F801ED5FFE4F6381662351F02091EE
:1033500032013091330184819581820F931F0E9445
:1033600025190E94A61880E18A95F1F75A9852987B
:103370005A9A80E18A95F1F7F801ED5FFE4F60817E
:10338000662351F020913201309133018181928185
:10339000820F931F0E94D8180E949E180F90DF91F1
:1033A000CF91FF91EF91BF91AF919F918F917F91BD
:1033B0006F915F914F913F912F911F910F910F90BE
:1033C0000FBE0F901F9018950F931F93CF93DF930D
:1033D000EC0104970CF04CC0F894529A5A9885E08E
:1033E0008A95F1F700009C2F969595708C2F85702B
:1033F000980F892F83709695969523E0CC0FDD1F4B
:103400002A95E1F7980F8E01092B0E94A61800C09B
:1034100068E0802F0E94041980E18A95F1F75298A4
:103420005A9A4A9B1EC087E090E04A991CC0FE0150
:10343000ED5FFE4F63816623F9F0209132013091F8
:10344000330184819581820F931F0E94D8188111C6
:1034500013C0529A5A9A7894DF91CF911F910F918D
:10346000089500C0DECF019729F4529A5A9A7894B1
:1034700080E0F2CF00C0D9CF0E949E1880E28A95EA
:10348000F1F75A98529A80E18A95F1F7CD5FDE4FB5
:103490006881662351F02091320130913301898196
:1034A0009A81820F931F0E9425190E94A618789472
:1034B00081E0D2CF8091E50108950895089508959F
:1034C0009B01BA01909107029430E9F48F708093C8
:1034D000E9009FEF8091E800915085FD06C085EDE1
:1034E0008A95F1F700009111F5CF8091E80085FFF2
:1034F0000AC050E040E0C9010E94911C8091E800A0
:103500008E778093E8000895CF93DF93EC0148E035
:1035100050E0BC0181E00E94601A88E0FE01ADED40
:10352000B1E001900D928A95E1F7DF91CF91089576
:10353000603231F440E250E0BC0182E00E94601A47
:10354000089580910602811109C00E94701E0E9498
:10355000CD1E8091E20084608093E2000895109275
:10356000060208950E948D1708956091030281E07C
:10357000611101C080E00E948417089590910702B4
:1035800081E0943009F080E0609103020E948A1784
:10359000089542E061EC81E00E94EC1D42E261ECA2
:1035A00082E00E94EC1D42E260EC83E00E94EC1D90
:1035B0009091070281E0943009F080E0609103026D
:1035C0000E947A17089580910902833009F461C03E
:1035D00030F48130D1F1823009F49EC008958A30F0
:1035E00009F48AC08B3009F46FC0893009F050C0EB
:1035F00080910802813209F04BC080910C029091B9
:103600000D02892B09F044C08091E800877F8093E8
:10361000E8008091E80082FF37C09091F30080912C
:10362000F200029731F48091F100813011F0863080
:1036300021F48091F1008093E5018091E8008B777F
:103640008093E8000E94201E23C080910802813AE6
:10365000F9F48091E800877F8093E80080910C0264
:1036600090910D02892B61F468E08DED91E070E09E
:103670000E942F1D8091E8008B778093E8000895C9
:1036800060E090E080E0F3CF809107028111C1CF2C
:10369000089580910802813AD9F780910C029091A7
:1036A0000D02892BA9F78091E800877F8093E800BD
:1036B0008091E80080FFFCCF809128018093F10089
:1036C0008091E8008E77BCCF80910802813201F7AB
:1036D00080910C0290910D02892BD1F68091E80027
:1036E000877F8093E8000E94201E80910A028093C9
:1036F00028010E94A505089580910802813241F6B3
:103700008091E800877F8093E8000E94201E8091CE
:103710000B028093E601089580910802813A09F036
:10372000B7CF8091E800877F8093E8008091E80020
:1037300080FFFCCF8091E601C1CF84B7877F84BF33
:103740000FB6F894A895809160008861809360001E
:10375000109260000FBE80E890E00FB6F89480935E
:103760006100909361000FBE0E94931708950E941C
:10377000701E0E94CD1EE2EEF0E0808184608083A6
:1037800078940E944C2108958EE191E00E94E71602
:10379000089580910702853031F4809107028530C9
:1037A00019F00E940D1808950E94E21780910502F9
:1037B000882399F30E94A017882379F30E947B1C29
:1037C0000E94A505EACFA0E2B0E0E9EEFBE10C948F
:1037D000962180910702843009F583E08093E90007
:1037E0008091E80082FF1AC08091E80090E085FF98
:1037F00009C050E040E060E270E0CE0101960E9416
:10380000E01C91E08091E8008B778093E800992399
:1038100029F060E2CE0101960E941A16A096E2E01D
:103820000C94B2219A0140910E0250910F020E9415
:103830001A1C0895E92FFF27E330F105E9F060F441
:10384000E130F10509F448C0329709F44AC0F0E0CC
:10385000E0E090E080E025C0E132F10571F1E23274
:10386000F105A9F76115710509F440C082EC92E0F9
:1038700061307105B1F0EBCF992781309105B1F03E
:10388000009749F0029719F7ECE4F2E0E491F0E0D8
:103890008CE492E006C0EAE6F2E0E491F0E08AE629
:1038A00092E0D9018D939C93CF010895EEE5F2E06B
:1038B000E491F0E08EE592E0F4CFE9E0F0E080E81A
:1038C00092E06115710569F3E9E0F0E089E992E0C1
:1038D0006130710531F3BBCFE2E1F0E080EB92E0C3
:1038E000E0CFE2E4F0E08EE692E0DBCFE4E4F0E06B
:1038F00084EE92E0D6CF80E189BD82E189BD09B432
:1039000000FEFDCF8091D8008F7D8093D8008091FC
:10391000E00082608093E0008091E00081FDFCCFB8
:103920000895AF92BF92CF92DF92FF920F931F93B1
:10393000CF93DF936C01EB018A010E943F1EF82EAA
:10394000811123C00115110539F0F80180819181A1
:10395000C81BD90BC80ED91EB12CA12C2097A9F0D9
:103960008091E80085FD22C08091E8008E778093E9
:10397000E80001151105A1F0F80180819181A80EE0
:10398000B91EB182A08285E0F82E8F2DDF91CF91F4
:103990001F910F91FF90DF90CF90BF90AF9008954F
:1039A0000E943F1E8823D1F2F82EEFCFF6018191BD
:1039B0006F018093F1002197FFEFAF1ABF0ACECFBE
:1039C000AF92BF92CF92DF92FF920F931F93CF934C
:1039D000DF936C01EB018A010E943F1EF82E8111DA
:1039E00023C00115110539F0F80180819181C81BB0
:1039F000D90BC80ED91EB12CA12C2097A9F080910B
:103A0000E80085FD22C08091E8008B778093E80074
:103A100001151105A1F0F80180819181A80EB91E50
:103A2000B182A08285E0F82E8F2DDF91CF911F917A
:103A30000F91FF90DF90CF90BF90AF9008950E94BC
:103A40003F1E8823D1F2F82EEFCF8091F100F601CE
:103A500081936F012197FFEFAF1ABF0ACECFFC0110
:103A600080910E0290910F0286179707A0F06115C2
:103A7000710529F49091E8009E779093E80090E01A
:103A80006115710551F4911108C08091E80082FF21
:103A900034C080E00895BC01F2CF809107028823F2
:103AA000C1F18530C1F18091E80083FD30C0809183
:103AB000E80082FDEACF8091E80080FFE1CF8091AD
:103AC000F3002091F200382F6115710519F02830AC
:103AD000310558F091E02830310509F090E020914F
:103AE000E8002E772093E800CBCF81918093F100FE
:103AF000615071092F5F3F4FE7CF80910702882304
:103B000041F0853041F08091E80083FFBECF81E035
:103B1000089582E0089583E00895FC0180910E02EB
:103B200090910F0286179707A0F06115710529F48F
:103B30008091E8008E778093E80090E06115710530
:103B400051F4911108C08091E80082FF35C080E0F7
:103B50000895BC01F2CF809107028823C9F1853016
:103B6000C9F18091E80083FD31C08091E80082FDB9
:103B7000EACF8091E80080FFE1CF8091F3002091AF
:103B8000F200382F6115710519F02830310558F011
:103B900091E02830310509F090E08091E8008E77BF
:103BA0008093E800CBCF84918093F10031966150EF
:103BB00071092F5F3F4FE6CF80910702882341F0C4
:103BC000853041F08091E80083FFBDCF81E008950A
:103BD00082E0089583E00895982F973028F08F7041
:103BE0008093E90081E008959093E900242F762FD7
:103BF00050E0981731F07091EC002091ED00509159
:103C0000F00021FD02C09F5FE8CF3091EB003E7FC6
:103C10003093EB003091ED003D7F3093ED0030911B
:103C2000EB0031603093EB007093EC002093ED00DB
:103C30005093F0002091EE0027FDE5CF80E008953D
:103C40008091080287FF13C08091E80082FF06C0C0
:103C50008091E8008B778093E80004C08091070290
:103C60008111F2CF0895809107028823D9F38091C2
:103C7000E80080FFF8CF8091E8008E77ECCF2091AC
:103C8000E4003091E50095E6A9012091EC00822F37
:103C9000817020FF06C08091E80080FF06C080E0B0
:103CA00008952091E80022FD1AC080910702882320
:103CB00089F0853089F08091EB0085FD0FC020915F
:103CC000E4003091E50042175307F9F29150E1F614
:103CD00084E0089582E0089583E0089581E00895E6
:103CE0000E94DF1E0E94E71EE0EEF0E0808181600E
:103CF0008083E8EDF0E080818F77808319BCA7EDA9
:103D0000B0E08C918E7F8C9380818F7E8083109227
:103D1000060208950F931F93CF93DF930E94DF1E37
:103D20000E94E71EC8EDD0E088818F778883888164
:103D30008068888388818F7D888319BC10920702F0
:103D400010920302109205021092040200EE10E09D
:103D5000F80180818B7F808388818160888342E045
:103D600060E080E00E94EC1DE1EEF0E080818E7F5B
:103D70008083E2EEF0E080818160808380818860D2
:103D80008083F80180818E7F808388818061888331
:103D9000DF91CF911F910F910895E8EDF0E08081C0
:103DA0008F7E8083E7EDF0E080818160808384E016
:103DB00082BF81E0809306020E948A1E0895E8ED8A
:103DC000F0E080818E7F80831092E200089510924F
:103DD000DA001092E10008951F920F920FB60F9231
:103DE00011242F933F934F935F936F937F938F9300
:103DF0009F93AF93BF93EF93FF938091E10082FF76
:103E00000BC08091E20082FF07C08091E1008B7FB0
:103E10008093E1000E944B218091DA0080FF19C05D
:103E20008091D80080FF15C08091DA008E7F80934A
:103E3000DA008091D90080FF96C080E189BD82E1DF
:103E400089BD09B400FEFDCF81E0809307020E9486
:103E5000A11A8091E10080FF19C08091E20080FFEB
:103E600015C08091E2008E7F8093E2008091E20095
:103E700080618093E2008091D80080628093D800B6
:103E800019BC85E0809307020E94B51A8091E10079
:103E900084FF2BC08091E20084FF27C080E189BDB0
:103EA00082E189BD89B5982F917080FFFBCF809109
:103EB000D8008F7D8093D8008091E1008F7E809321
:103EC000E1008091E2008F7E8093E2008091E20029
:103ED00081608093E20080910302882309F449C045
:103EE00084E0809307020E94BE1A8091E10083FF64
:103EF00029C08091E20083FF25C08091E100877F87
:103F00008093E10082E08093070210920302809187
:103F1000E1008E7F8093E1008091E2008E7F8093AC
:103F2000E2008091E20080618093E20042E060E084
:103F300080E00E94EC1D8091F00088608093F0008A
:103F40000E94B21AFF91EF91BF91AF919F918F9113
:103F50007F916F915F914F913F912F910F900FBE85
:103F60000F901F90189519BC109207020E94AF1A6B
:103F700070CF8091E30087FD93E090930702B3CF69
:103F80001F920F920FB60F9211242F933F934F93CE
:103F90005F936F937F938F939F93AF93BF93CF93D1
:103FA000DF93EF93FF93D091E900DF708091EC00F5
:103FB000C82FC17080FDC0E81092E9008091F00028
:103FC000877F8093F00078940E9404201092E9008B
:103FD0008091F00088608093F000CD2BCF70C0936B
:103FE000E900FF91EF91DF91CF91BF91AF919F9148
:103FF0008F917F916F915F914F913F912F910F9092
:104000000FBE0F901F901895AAE2B0E0EAE0F0E230
:104010000C94952188E092E02091F100FC0121931D
:10402000CF01F2E080319F07B9F70E94E31A809137
:10403000E80083FF1EC180910802909109029A3026
:1040400008F017C1E92FF0E0EA5BFD4D0C947921EF
:10405000803899F0823809F00CC180910C028F7081
:10406000873008F006C18093E9008091EB0085FB62
:10407000882780F91092E90006C08091040290918F
:104080000502911182609091E800977F9093E8007B
:104090008093F1001092F1008091E8008E77E5C0E6
:1040A000882309F4D3C0823009F0E3C080910A026A
:1040B0008111D6C080910C028F702FEF280F26300F
:1040C00008F0D7C08093E9002091EB0020FFC8C022
:1040D000933031F48091EB0080628093EB00C0C09C
:1040E0009091EB0090619093EB0021E030E001C0F3
:1040F000220F8A95EAF72093EA001092EA00809155
:10410000EB008860EACF8111B4C010910A021F77DA
:104110008091E3008078812B8093E3008091E80018
:10412000877F8093E8000E94201E8091E80080FF36
:10413000FCCF8091E30080688093E30082E011115E
:1041400083E08093070295C08058823008F091C0C8
:1041500080910A0290910B028C3D23E09207A1F519
:1041600083E08A838AE289834FB7F894DE0113964D
:1041700020E03EE051E2E32FF0E050935700E4915D
:1041800020FF03C0E295EF703F5FEF708E2F90E04D
:10419000EA30C0F0C7968D939D932F5F243159F775
:1041A0004FBF8091E800877F8093E8006AE270E06B
:1041B000CE0101960E942F1D8091E8008B7780939D
:1041C000E80057C0C096E7CF60910C0270910D02D5
:1041D000AE014F5F5F4F0E94121CBC01892B09F496
:1041E00048C09091E800977F9093E80089819A8178
:1041F0000E948D1DE1CF8038E1F58091E800877F36
:104200008093E800809103028093F10045CF8111F3
:1042100030C090910A02923060F58091E800877F6B
:104220008093E800909303020E94201E8091030275
:10423000882311F084E005C08091E30087FDFACF68
:1042400081E0809307020E94C91A13C080910A027C
:10425000813079F481E0933009F080E080930502A9
:104260001092E9008091E800877F8093E8000E9427
:10427000201E8091E80083FF0AC08091E800877FBC
:104280008093E8008091EB0080628093EB00AA9617
:10429000E3E00C94B1210895CF9380910702882325
:1042A000A1F0C091E900CF709091EC00892F81704E
:1042B00090FD80E8C82B1092E9008091E80083FD12
:1042C0000E940420CF70C093E900CF9108950E940E
:1042D000701E109207020895E8EDF0E08081806181
:1042E00080838AE18A95F1F700C08091D9008170BE
:1042F0000895EE0FFF1F0590F491E02D09946927B2
:104300009627692778278727782708952F923F9245
:104310004F925F926F927F928F929F92AF92BF92D5
:10432000CF92DF92EF92FF920F931F93CF93DF9381
:10433000CDB7DEB7CA1BDB0B0FB6F894DEBF0FBEDE
:10434000CDBF09942A88398848885F846E847D842B
:104350008C849B84AA84B984C884DF80EE80FD802D
:104360000C811B81AA81B981CE0FD11D0FB6F894A3
:10437000DEBF0FBECDBFED010895FB01DC0104C01F
:104380008D910190801921F441505040C8F7881B4D
:10439000990B0895FB01DC0102C001900D92415080
:1043A0005040D8F70895F999FECF92BD81BDF89A93
:1043B000992780B50895A8E1B0E042E050E00C9460
:1043C0001722DC01A40FB51F4150504048F0CB012B
:1043D000840F951F2E910E94F22141505040D0F73A
:1043E0000895262FF999FECF92BD81BDF89A0197C5
:1043F00000B4021639F01FBA20BD0FB6F894FA9A2D
:10440000F99A0FBE08950396272F0E94F2210E9469
:10441000F121252F0E94F221242F0C94F2210196E4
:10442000272F0E94F2210C94F121DC01CB01FC0129
:10443000F999FECF06C0F2BDE1BDF89A319600B4FD
:104440000D9241505040B8F70895F894FFCFD5032E
:10445000D5032504250404040404040404048A0484
:10446000F104000500052F163B16711683168E16F3
:1044700099169C169C169C1641164116A116A51657
:10448000AD16BA16C716CA16CD16DA162820502051
:104490003921502039218320A4203921FB200721F4
:1044A000990101000000010000000000000004016B
:1044B00000000004050000000000000302015A1A79
:1044C000841A5E1A5F1A5D1A01946697C635F6F76C
:0444D0003132BF01C5
:00000001FF
